:020000040000FA
:1000000070C90120F90502001D150300E505020075
:10001000E5050200E5050200E5050200E505020030
:100020000000000000000000000000005D0702006A
:10003000E505020000000000F5060200E5050200EB
:10004000E1080200E1080200E1080200E108020004
:10005000E1080200E1080200E1080200E1080200F4
:10006000E1080200E1080200E1080200E1080200E4
:10007000E1080200E1080200E1080200E1080200D4
:10025000E1080200633B0300E1080200E10802003C
:10026000E1080200E10802004D3B0300E108020042
:10027000E1080200E1080200E1080200E1080200D2
:10028000E1080200E1080200E1080200E1080200C2
:10029000E1080200E1080200E1080200E1080200B2
:1002A000E1080200E1080200E1080200E1080200A2
:1002B000E1080200E1080200E1080200E108020092
:1002C000E1080200E1080200E1080200E108020082
:1002D000E1080200E1080200E1080200E108020072
:1002E000E1080200E1080200E1080200E108020062
:1002F000E1080200E1080200E1080200E108020052
:10030000E1080200E1080200E1080200E108020041
:10031000E1080200E1080200E1080200E108020031
:10032000E1080200E1080200E1080200E108020021
:10033000E1080200E1080200E1080200E108020011
:10034000E1080200E1080200E1080200E108020001
:10035000E1080200E1080200E1080200E1080200F1
:10036000E1080200E1080200E1080200E1080200E1
:10037000E1080200E1080200E1080200E1080200D1
:10038000E1080200E1080200E1080200E1080200C1
:10039000E1080200E1080200E1080200E1080200B1
:1003A000E1080200E1080200E1080200E1080200A1
:1003B000E1080200E1080200E1080200E108020091
:1003C000E1080200E1080200E1080200E108020081
:1003D000E1080200373B0300E1080200E1080200E7
:1003E000E1080200E1080200E1080200E108020061
:1003F000E1080200E1080200E1080200E108020051
:10040000E1080200E1080200E1080200E108020040
:10041000E1080200E1080200E1080200E108020030
:10042000E1080200E1080200E1080200E108020020
:10043000E1080200E1080200E1080200E108020010
:10044000E1080200E1080200E1080200E108020000
:10045000E1080200E1080200E1080200E1080200F0
:10046000E1080200E1080200E1080200E1080200E0
:0C047000E1080200E1080200E1080200BF
:10048000064A074B02604FF44072DB7882800822F4
:10049000C371002382710372704700BFD1BE010097
:1004A000181B0020064A074B02604FF4C472DB7A27
:1004B00082800822C371FF2382710372704700BFDC
:1004C00045BA0100181B0020084B094A1B7892F816
:1004D00028201B020749C27103F52E730160838037
:1004E00008238371FF230372704700BF481C00205C
:1004F000181B002071690100074A9378D2781344D1
:10050000064A02604FF4BA72C371FF23828004224C
:1005100003728271704700BF181B002087690100B9
:10052000064A9378D2781344002282600260044A1B
:100530004260C371FF230372704700BF181B002085
:100540007000080008B50122094B83F82A2002F048
:1005500031FA04F0D5FF18F051FC06490D2000F0E7
:10056000E1FC05490E20BDE8084000F0DBBC00BFFF
:10057000181B0020C9040000F90400002DE9F34114
:10058000C41D0028064624F007040CBF00202046A6
:1005900000F0DAFC071E04DA6FF00B0002B0BDE8D1
:1005A000F081374DE988A88803316B7A03302A7AC5
:1005B00089B280B215F0B0FC0028EDDB3C44A9788C
:1005C000EB78002E04F10304194424F0030400FB2B
:1005D00001F10CBF0020204600F064FE20440EB95B
:1005E0000028D9DBEA7A0446B2B1EB7B697C13447C
:1005F0001944FF29D0D80330002EAA89C9B220F0AF
:1006000003040CBF0020204600F0BEFE0028C3DB20
:1006100004440EB9002CBFDB012000F08BFCB0B10C
:10062000A97BA1B195F82B3033B340234FF48172ED
:100630000734002E24F007040CBF0020204601F0F0
:1006400011FF0028A8DB04440EB9002CA4DBAB7A10
:10065000FBB1EB7AB3B10734002EA97A24F007047A
:100660000CBF0020204607F0FBF8002894DB044470
:100670007EB9002C0DDA8FE725232822D8E700BFAA
:10068000181B0020012000F055FC10B1AB7B002BA3
:10069000E1D1734B1B6893B1A97D81B10334002E66
:1006A000EA7D24F003040CBF002020469847002870
:1006B000FFF672AF044416B9002CFFF66DAF694B1C
:1006C0001B688BB1297C79B10334002E24F003041C
:1006D0000CBF0020204698470028FFF65DAF044479
:1006E00016B9002CFFF658AF5F4B1F68B7B1697C95
:1006F000A1B10334002E2B7D24F0030408BF002099
:10070000009318BF2046EB7CAA7CB8470028FFF670
:1007100043AF044416B9002CFFF63EAF072000F0AB
:1007200009FC98B1A97D89B10334002E2A7E24F0FA
:1007300003040CBF0020204600F014FF0028FFF641
:100740002BAF044416B9002CFFF626AFB6FA86F795
:1007500095F823007F09A0B103346B7FA97E24F0B4
:10076000070419443B4644F00404C9B2224600F091
:1007700039FF0028FFF610AF044416B9002CFFF62D
:100780000BAF95F8241000294CD004F10708002E77
:10079000EA8C28F007080CBF0020404615F0D0FB7B
:1007A000041EFFF6F9AE4444002E3ED1002CFFF6A5
:1007B000F3AEA97F002945D095F82230002B41D017
:1007C0002A8C0734002E02F1240224F007080CBF03
:1007D0000020404692B215F0B3FB0028FFF6DCAED5
:1007E000404416B90028FFF6D7AE03302B7FA97E10
:1007F00020F0070019443B4640F0040495F822001D
:10080000C9B2224600F0E0FE0028FFF6C5AE04445F
:1008100086B9002CFFF6C0AEEB6AF3B1C6B1EC624C
:100820000020BBE6002EC4D08846E98C40460CF080
:100830007FFFBEE72A8C4046A97F083292B20CF0B7
:100840007DFFE9E7002EE7D0002211461046F6E7CB
:1008500028343FF5A1AE2046A0E6002EE0D1FAE70D
:1008600014290020182900201C2900201FB572B669
:10087000194B1C6BECB9BFF34F8F1849184BCA6862
:1008800002F4E0621343CB60BFF34F8F00BFFDE77C
:10089000B2FBF6F22B465D1C002AF9D1DBB203F164
:1008A00010056D4405F80C2C0A2233B901A8A047A5
:1008B000E1E7024600230A26EDE7013BDBB203F144
:1008C00010050DEB0506B0FBF2F502FB150030300C
:1008D00006F80C0C2846E8E7181B002000ED00E0A5
:1008E0000400FA0513B5124C68462389ADF80030B0
:1008F000E388ADF80430A388ADF8023003F020FFA0
:1009000018B1FC219C20FFF7B1FF207D03F048FFC8
:1009100008B1FF21F6E7E07C03F03CFF10B14FF493
:100920008071EFE794F829000AF094FE02B010BD40
:10093000181B002070B50546002858D014F0E0FBC5
:1009400018B94FF0FF34204670BD13F035F8B0F5FC
:10095000FA7FF6D8274C012625630025284684F81F
:100960003450257084F82B50E56284F82A500CF03E
:1009700073F91A22294604F10F001CF073FB1B23A4
:1009800008210322A3802846E3800223A1721F21AD
:100990006372E375F72322722384FB23A273492237
:1009A000E3840A23A1812946E27484F82930A670E1
:1009B000E670E672A674267602F050F82A463146B2
:1009C000304602F007F8044620B140F2B7319C20CF
:1009D000FFF74CFF0246014602F02AF8EFF31085BC
:1009E00072B600F025FE002DADD162B6ABE76FF018
:1009F0001504A8E7181B002038B51446002840F05D
:100A0000EE80784D95F83430032B00F0E58019B373
:100A100012B96FF0150038BD0139172900F2DF80D7
:100A2000DFE811F0180029002C0042006C0075006E
:100A30009400480078007B008E004E005400620055
:100A400067009A009D00AC00AF00B200A300B500A3
:100A5000B900D2001378AB700020FFF78FFD00289B
:100A6000B7BF012302236FF00B0085F83430A8BF15
:100A700085F83430CFE71378EB70EDE71379002B6E
:100A8000C7D05379002BC4D01288FB2AC1D8638801
:100A90001B3B9BB2E02BBCD81A2ABAD92368A28888
:100AA0006B60514B9A80D7E71378EA7B9342B0D3BF
:100AB000EB72D1E71378EA7A9342AAD8EB73CBE7CB
:100AC0001378EA7A9342A4D86B74C5E71378002BA5
:100AD0009FD05378013BDBB2F82B9AD813889278D9
:100AE0006B82424B9A70B7E7107868750AF00CFC7D
:100AF000B2E71378002B8CD02B76ADE7012000F005
:100B000019FA237808B1012B83D9AB73A4E71388B2
:100B1000AB81A1E71378AB759EE7072000F00AFAD6
:100B200018B92378012B7FF674AF072000F002FA82
:100B300018B12378002B3FF46CAF2378EB758BE76B
:100B40001378082B3FF665AF2B7485E71388FF2BCE
:100B50003FF65FAFAB727FE713786B767CE7137875
:100B60000E2B3FF656AFAB7676E72368204AC5F8E2
:100B70001E3063685360238913816DE71378EB7629
:100B80006AE713786B7767E713782B7764E7137856
:100B900085F8283060E701F017FF98B1007900F080
:100BA00001026178207801F015FF00287FF433AF4F
:100BB0006378012B7FF650AF0CF018FD00287FF40E
:100BC0004BAF26E70246ECE713785A1E092A3FF698
:100BD00020AF85F829303FE74FF0FF301BE76FF07B
:100BE0002C0018E7181B00201C1B00202A1B0020CB
:100BF000361B0020F8B50D46064630B329B311F078
:100C0000070422D1124F97F83430012B02D16FF034
:100C10000B00F8BD032B02D14FF0FF30F9E700F0D5
:100C20009FF80028F8D02846FFF7A8FC0028EEDB44
:100C30001BF091FD3046F96A04F07CFCFFF752FE90
:100C40000323204687F83430E3E76FF01500E0E730
:100C5000181B002010B5074C94F83430032B03D137
:100C600004F080FC05F074FB15F08EFA002084F887
:100C7000340010BD181B002050B1074B03F11402C3
:100C800053F8041B934240F8041BF9D1002070472D
:100C90006FF01500704700BF10C6030008B504F0E0
:100CA000E5FB03490320BDE8084000F03BB900BF65
:100CB000A504000008B504F0EDFB03490220BDE8DF
:100CC000084000F02FB900BF8104000008B504F00F
:100CD00003FC03F081FD03490F20BDE8084000F04C
:100CE00021B900BF2105000008B50A4B93F82A304E
:100CF0000BB9FFF727FC01F067FEC1780120C1F3B3
:100D0000400101F0ABFE0FF081FDBDE8084012F09C
:100D10002BB900BF181B002008B5094B93F82A30E7
:100D20000BB9FFF70FFC01F04FFE0121C07808401E
:100D300001F094FE0FF072FDBDE8084012F01CB9FE
:100D4000181B002002680020014B1A60704700BF8A
:100D5000501B0020014B1B68184700BF501B002090
:100D6000024B1868003818BF01207047501B002044
:100D7000074B4FF0FF3141F6FF72C3E900120549FE
:100D80000022C1E900221F21C3E90212704700BFFF
:100D900020110020541B00203F280CD801380B4B99
:100DA000C0F3421200F01F0053F8223023FA00F083
:100DB00000F001007047FF2806D04038044BC0F314
:100DC000421200F01F00EFE70120704720110020C1
:100DD000541B0020074B0146006849681A4603C2AD
:100DE00040F48C2200201A6041F0107242F4FF623D
:100DF0005A607047201100200246034B006851687A
:100E000003C30020704700BF541B00200246034B61
:100E10000068516803C30020704700BF28110020FC
:100E200008B5382800F1FF33DBB205D104F008FC27
:100E30004078C0F3C00008BD5909054A03F01F03FC
:100E400002EB81029068D84000F00100F3E700BF98
:100E5000201100200A8870B595B2C67CC2F30E023C
:100E60000488023602F118033444C35AA4B233444E
:100E70002344013BB3FBF4F303FB0422438892B207
:100E80009342044B8BBF2B40AB4313439BB20B806D
:100E900070BD00BF0080FFFF4A1E062A08B503464A
:100EA000084604D84FF4D1711520FFF7DFFC094A3A
:100EB000914202D940F2A311F6E711B903B11960CA
:100EC00008BD2BB11B680022C3E901211A1D1A605D
:100ED0000430F5E7FAFFFF7F10B5114B00EB41043A
:100EE0001A786389B3FBF2F303FB0223013A1A4435
:100EF000B2F5706F0279807828BF00231A440B186E
:100F0000B2FBF0F100FB11215B1AB3FBF0F100FB27
:100F1000113313446FEA43436FEA5343638110BDB7
:100F20005C1B0020024B03EB80035960704700BF3D
:100F30005C1B0020034B03EB80035868003818BF8C
:100F4000012070475C1B00202DE9F04F10F0070ACC
:100F500085B0054604D040F26F111720FFF786FCDC
:100F6000534F04464FF0010B07F15406B146B0460B
:100F700057F8043B8DF80BA03BB101A898479DF8AA
:100F80000A30082B01D9F521E7E79DF80B1041BB8A
:100F900005B131604F4506F10406E9D1002D6FD04F
:100FA0000022DFF810911427964689F8002058F89F
:100FB00027A0013FBAF1000F55D09AF804609AF8C3
:100FC00002C0FF2E60D039460023481C38D19C4413
:100FD000BCF1FF0F3FD90AB189F800E04FF49A71D4
:100FE000BBE79DF80AC04B1D60465A0004EB430363
:100FF000022838BF0220441E40422344BDF8084066
:101000006444CCF1000C0340013C04EA0C04B4F548
:10101000803F02D340F205119FE775B19A1A326002
:101020009170148082F803B09DF80C001071019843
:101030004FEA104C1081A2F806C004FB0134A9E766
:1010400058F8210028B190F804B0B34504BF807867
:101050001B180139B9E7DBB2E6458AF804303CBF1A
:101060005FFA8CFE01227B1CA1D10AB189F800E055
:10107000142640F6FF6A58F82670B7B9013EFAD236
:10108000601B05B0BDE8F08F0023E5E707EB4103E7
:1010900009F101093846A3F80AA0FFF71DFF5FFA1E
:1010A00089F1BB788B42F1D8E8E74FF00009F6E709
:1010B000601B00205C1B002038B54FF6FF73024612
:1010C0000380184B03EB8103986DA8B184780379F2
:1010D000B3FBF4F104FB1133DBB2194600EB41051D
:1010E000B5F90A50002D0EDB0131B1FBF4F504FB1C
:1010F0001511C9B28B42F1D1002038BD6381BDE822
:10110000384014F0D6BE00EB41046389C3F30E03EC
:101110001380C278002AF1D14FF4E5711720FFF750
:10112000A5FB00BF5C1B00201C4B03EB810370B5CB
:101130009C6D054644B3030404D54FF4EC711720AD
:10114000FFF794FB0146204614F096FEFF28014667
:1011500004D02046BDE8704014F0ABBEA078B5FBCB
:10116000F0F300FB1353DBB219460A1D04EB4206F1
:10117000B6F90260002E09DB0131B1FBF0F200FB91
:101180001211C9B28B42F0D1002070BD8B4201D048
:101190000023E37004EB42025580DAE75C1B002079
:1011A000094B03EB8103014610B59C6D204614F0FA
:1011B00063FEFF28014604D02046BDE8104014F02D
:1011C00078BE002010BD00BF5C1B0020F8B5104B9E
:1011D000074603EB810301469C6D204614F04CFE4C
:1011E000FF28054611D0E288238953EA024606D03B
:1011F0000146204614F05DFE01463846B0472046C1
:101200002946FFF769FE0020F8BD0520FCE700BF76
:101210005C1B002038B50E4B0446827903EB820339
:10122000986D08B9052038BD8278E1799142F9D2EC
:101230004B1CE37100EB41035D89B3F90A30002BCD
:10124000F3DBA58014F035FE20600020EBE700BF43
:101250005C1B002008B5124B03EB81039A6D22B989
:1012600040F246211720FFF701FB9178831A481DB1
:10127000A3EB40031088B3FBF0F3002B01DB994292
:1012800002DC40F24921EDE702EB4302B2F90A30F9
:101290005089002B02DA40F24B21E3E708BD00BF82
:1012A0005C1B002070B5044610F003000E4603D00E
:1012B0004E211820FFF7DAFAFFF7EEFD054624B1BC
:1012C000034831460460FFF7E7FD284670BD00BFC4
:1012D000081C00202DE9F14FDFF870B01E460746CC
:1012E0000D46DBF8003090469DF828A09DF82C9024
:1012F0001BB960211820FFF7B9FA52460921404670
:1013000014F03EFC4A4684B20921304614F038FC01
:1013100081B2DBF80000214414F082FD386018B976
:10132000286001B0BDE8F08F0444534641460922CD
:101330002C60386814F0E7FB4B46092231462868D8
:1013400001B0BDE8F04F14F0DEBB00BF081C002068
:1013500070B50E46044614F026FC0546304614F0DF
:1013600022FC044B2A1821461868BDE8704014F08E
:101370007CBD00BF081C0020024B186808B114F0A7
:1013800043BD7047081C00201F2AF8B504461346C9
:101390000ED89200033222F00303B3F5803F2DD222
:1013A000184DACB1A00710D068210920FFF75EFAF4
:1013B000FF2B4FEA420204D9FF339A42A8BF1A46D4
:1013C000E8E77C2AB8BF7C22E4E729706C602B81B7
:1013D00022F0030228230127120403FB01F06B68AB
:1013E0000025120CEEB2B14200D8F8BD14B1261897
:1013F0001F705E60104401352833F3E74FF0FF3073
:10140000F3E700BF0C1C0020154A002170B553689B
:101410001578C8B2854203D8BA210920FFF726FA09
:101420001C461846013114F8286B0EB92346F0E724
:101430000021997001241289996103F126055C70DD
:101440009208D96103F11E04596824F8022FA542BD
:1014500043F8041F1144F8D100234361037070BDA9
:101460000C1C00200A4B1B89B3F5FF7F4FEA930049
:1014700006D25A089B1A9BB2984238BF184670474A
:10148000B3F5EE6F01D8FF22F4E740F27263F3E7A1
:101490000C1C00204B782DE9F04106460C4602F06A
:1014A000040702F0FB05E3B1A5BBFF23A3707B0893
:1014B00004EB57073A7D032A02D1022D18BF0133EE
:1014C000E2180121117503F10C01002204EB8303E2
:1014D00024F811205B68A27030463360B280BDE80A
:1014E000F081002DE1D1012301F11E028D61204622
:1014F0004B7004F1260C1A4BCD611B8949689B087F
:1015000022F8023F944540F8041F1944F8D1002303
:101510006361CAE7D1F8048014220021A018617029
:101520001BF0A0FD0E4B1B89B3F5FF7F0FD25A08AD
:101530009B1A9BB208EB0301C4F804802384A160CA
:101540006284C4F80C80A3842161E284ADE7B3F522
:10155000EE6F4FF0FF02EBD940F27263EAE700BF93
:101560000C1C00202DE9F84305460C46F720052108
:10157000914614F005FB061E21DB1DB906FB04F0A5
:10158000BDE8F88315F0030703D098211920FFF771
:101590006DF9DFF83080C8F81050A8F81460BBB2BD
:1015A0009C42EBD9B8F814504B46D8F810000522ED
:1015B000F72107FB0500013714F0A5FAEFE74FF01C
:1015C000FF30DDE7201C002007B5CDE900230B46E6
:1015D00003490246081D14F0B1FD03B05DF804FB99
:1015E000381C002013B5064CCDE900230B460246FB
:1015F00004F1080104F10C0014F0A0FD02B010BDCC
:10160000381C002008B54B1E032B03D92321902042
:10161000FFF72CF90028054A0CBF05230C2303EB28
:101620008103053323F00103137008BD481C00201B
:10163000114B01224FF0FF3000215A60C3F808031C
:10164000C3F80015C3F804255A6040F6FE72C3F8CB
:1016500008034020C3F8001503F570330749C3F8A9
:101660000825C1F88800BFF34F8FBFF36F8FC1F813
:101670008801C3F8082570470060045000E100E0CD
:101680000A4606483D2302F8033BC368C1F803300D
:101690000369536043699360704700BF4C1C00208E
:1016A000024B5A8C02435A845B6A18474C1C002038
:1016B000014B00215B6A18474C1C002070B5194C87
:1016C000054694F828604EB1012807D1638C1A07AB
:1016D00004D594F830300BB1012070BD0129FBD83E
:1016E000636B284698470028F6D094F83800002805
:1016F000F2D11EB9012D0BD03046EEE7002DECD112
:10170000638C9B0704D594F8300080F00100E4E777
:10171000608C0028E0D194F83930002BDDD194F8AA
:101720003A00F2E74C1C002010B5154C0AF046FDBB
:101730000BF054FAA08FFFF7BBFF237E63B1224664
:10174000104904F1190052F80C3BE36063685360E0
:10175000A368936018F0D0FF0B4BA28F93E80300AF
:1017600006F008FAE36A188806F014F8236C94F877
:10177000381094F83E009847002384F8443010BD98
:101780004C1C002081160000741C0020034B93F8B1
:1017900044300BB1FFF7C8BF704700BF4C1C00209E
:1017A00070B5214C0646A36DE56AA3644FF48173BE
:1017B00094F85C00A4F84C3095F8933095F87510C7
:1017C00000EB83002EB9FF2803D195F874308B42CB
:1017D00001D00AF087FB95F89330FBB1206E0AF038
:1017E000D3FD216EA06C0BF07FF95EB995F87530D2
:1017F000033B012B2B8F8CBF00202820184480B284
:101800000AF010FEA88E0AF02DFB95F87410002047
:101810000AF04EFE022384F8443070BDA06C0AF03A
:10182000B3FD0BF0DBF9E0E74C1C0020F0B591F8BC
:10183000686087B00C4606BBCA883346134F04F174
:10184000800190F87500903497F82850013897F887
:101850005C70003DC0B218BF0125032810D8059662
:10186000002604960A4E305CCDE902700220CDE9D4
:1018700000540BF055F807B0F0BDD1E91E23DDE7A9
:1018800040F22C410620FEF7F1FF00BF4C1C002067
:10189000937203002DE9F041234C06460F4694F85D
:1018A0004430012B5FFA83F804D040F62F01272043
:1018B000FEF7DCFFE56A95F8843053B1002104207F
:1018C00085F88410FFF7ECFE94F828300BB185F80A
:1018D000858095F88830042B0DD114490220FFF73C
:1018E000DFFE94F8283033B1E36E1B789A1E534222
:1018F000534184F8303095F8933023B105F18001DD
:10190000E06AFFF793FF1EB1BDE8F041FFF70CBF9F
:10191000002FF9D031463046FFF7D0FE0028F3D132
:10192000BDE8F041FFF73CBF4C1C0020B81C002074
:1019300008B5094B93F84420022A04D040F2E6216E
:101940002720FEF793FFDA7A42F00102DA72BDE84F
:101950000840FFF7E9BE00BF4C1C0020F7B5184C4B
:101960000646656F0DB1236D23B940F2E77127205C
:10197000FEF77CFFB4F8543001F003012F466B7082
:101980002B7823F003030B4307F8033B3846B4F8E6
:101990005420216D13F00CFD0DF1020201A9A06F7E
:1019A000A564276514F026FA019814F011FA0122B3
:1019B000B4F854103060A06F14F0B5F903B0F0BD66
:1019C0004C1C002070B591F8686086B00C4606BBD0
:1019D000CA88334690F8740004F18001114D9034A8
:1019E000013895F82850C0B2B5FA85F503284FEABA
:1019F000551511D805960026009504960A4E305CC0
:101A00000390FB20CDE9014004200AF089FF06B0D5
:101A100070BDD1E91C23DDE740F22C410620FEF722
:101A200025FF00BF4C1C0020937203002DE9F04FEE
:101A3000B94C85B0E76A97F8741058B997F89320B5
:101A400094F85C3003EB8203FF2B03D197F87530D9
:101A50008B4202D0FF200AF045FA02A9AF4816F0E7
:101A600071FB8346A0B3029A53786266A4F8703083
:101A700003B1D31CE36600251378C3F3001384F885
:101A8000393097F89230002B00F06B81B4F8703049
:101A9000002B00F06681206E0AF076FC2A46D4E91D
:101AA00018100AF05BFE18B9D4E918010AF0B2FF69
:101AB000F88E0AF0D7F997F8751001200AF0F8FCB3
:101AC000012384F8883084F8443005B0BDE8F08FF5
:101AD000E66A8DF8050096F88830ADF80600052B0B
:101AE00000F20C81DFE813F006000D01E100E100D7
:101AF000FA00FA0094F87F300DF1060103A8A6F869
:101B00006430ADF8063003F0EDFE40B1039D35B111
:101B1000012384F88030042386F88830DBE096F8CF
:101B2000CF30002B40F0A6800DF105020DF106012B
:101B3000D4F8840014F05EF80546002800F09A807E
:101B40009DF805B0BBF1000F1FD00146D4F884000A
:101B500014F03AF914F03CF9D0F800A0D0F8049051
:101B600080465AEA09037ED1002388F8003088F8BD
:101B7000013088F8023088F8033088F8043088F89B
:101B8000053088F8063088F80730BDF80630002B9D
:101B900078D1012386F8883001234FF0000B84F8B8
:101BA0008030BDF806306566A4F8703003B1EB1CD8
:101BB00096F8888096F889A0B8F1020F96F88A9076
:101BC000E36600F0A380A8F10408B8F1010F00F269
:101BD0009B80BBF1000F00F0A5800025E36E1B7811
:101BE0001B2B40F0BB80012106F110000AF0C2F966
:101BF0004FF003080122616E4FEACA0A4FEA8909D1
:101C00000B780AF0080A09F0040903F0F30343EA29
:101C10000A0343EA090323F0100343EA051323F000
:101C2000030348EA03030B70B4F870304B700223CF
:101C3000606EA4F86830037823F0200343EA42136F
:101C4000037052B1E36A197C5B7C032903F01F0324
:101C500008BF002143EA8113837005F0010584F871
:101C6000395015460DE71AF0B4FF824579EB0101B2
:101C7000BFF47AAF00230122294DADF8063086F873
:101C8000882090E79DF805301BB92B80AB700323AB
:101C900080E72B7803F00303012BF8D0022386F8AA
:101CA0008830002386F8953076E7B6F864300DF179
:101CB00005020DF10601D4F88400ADF8063013F0EA
:101CC00099FF054620B940F20D512720FEF7CEFDC1
:101CD000012384F88030BDF8063064E70DF1060179
:101CE00003A803F0FFFD08B1039D15B940F21C5194
:101CF000EBE7012384F8803005230DE740F22651FD
:101D0000E3E7074D00234EE74FF00108BBF1000F5A
:101D10000ED000252A466EE74C1C0020741C0020C3
:101D2000C81C00201B78022B3FF457AF4FF003086C
:101D3000D4F8840013F0B6FF50B9B8F1030F3FF4A4
:101D40004CAF03F0EBFD80F00105EDB2002252E74D
:101D5000B8F1030F4FF00105F8D13FE74FF003084A
:101D6000F4E7606E0AF010FB0AF038FF2946606E57
:101D70001AF01BFD9CE600BF2DE9F04F0023794CC3
:101D800085B080468A46E56ACDE9003394F8443050
:101D9000022B04D04FF40C612720FEF767FDA26CE4
:101DA00051781378A4F8541003210A44A4F84C1075
:101DB000226503EA01028DF80820C3F3C0028DF802
:101DC0000920C3F380028DF80A20C3F30012C3F385
:101DD00040138DF80B208DF80C3095F893300028C7
:101DE00000F06F81D3B10AF017FF831EDBB2012B25
:101DF00004D8FFF799FC05B0BDE8F08F70B9B4F8CE
:101E000054305BB195F88A309DF8092003F0010346
:101E10009A4203D1012384F83E30EAE7524A02A9EC
:101E2000A2F1280016F090F98346002849D1B4F8B1
:101E3000541011B1A06F13F056FFA38F9DF80A1034
:101E400043F400736067A38795F889300133DAB2F1
:101E500003F00103994236D0C146BBF1000F2DD1EA
:101E600095F88A309DF8092003F001039A4225D1A4
:101E7000B4F854609DF80830002E7BD05A1E012A19
:101E800078D8A38F95F8937043F48053A38709F013
:101E9000FFFF042894F8893006D1002F0CBF1F22C1
:101EA0001B22934228BF1346B4F854209A424ED9BD
:101EB00094F8383043F0100384F838300026374661
:101EC00070E00020B9E795F888305BB3013B85F8F6
:101ED0008920DBB2042B0FD8244A13441B79002B32
:101EE000BAD0022B0BD16946D4F8840013F0A4FEBB
:101EF00088B940F2F7614FE740F2D6614CE7032B17
:101F000010D103F0FDFC10B940F2017144E700214B
:101F10000820FFF7C5FBD5E93C32013342F100024E
:101F2000C5E93C32002194F8283085F888103BB18F
:101F300095F8853023B1102085F88510FFF7B0FBA8
:101F4000A38F4FF0000943F40063A38785E7636F15
:101F5000002BB3D094F88A3053B12020FFF7A8FBB0
:101F6000ACE700BF4C1C00209C1C002093720300B7
:101F70009DF8083095F88A20032B02F1010285F8BC
:101F80008A2000F093805A1E012A00F28180002EE0
:101F900094D000264746D5E93E32013342F1000293
:101FA000C5E93E3295F8923023B105F1800128460B
:101FB000FFF708FDBBF1000F40F0AD80636F9DF8A7
:101FC0000B20002B40F0A580B4F85430B3FA83F313
:101FD0005B09012A14BF002303F0010384F83A309F
:101FE000BAF1000F00F099800AF08CFA002F40F04F
:101FF000A7800126A38F5A0606D44020FFF758FB7E
:10200000A38F43F04003A387B9F1000F10D094F8D9
:10201000283043B1B4F80720B4F805301343B5F8BD
:102020008620134304D0B4F809300133A4F80930F2
:10203000B8F1000F00F08A80B4F805300133A4F83D
:102040000530002384F88B30434805F009FB0098E5
:1020500030B113F0BDFE00220272294604F092FA5C
:10206000019B33B100221A720C222946019804F018
:1020700057FA002E7FF4BDAEA38F1B063FF5BBAE13
:102080008020FFF715FBA38F43F08003A387B2E600
:10209000002E3FF414AF002B7FF410AFD5E93E3291
:1020A000013342F10002C5E93E3207E7A38F012068
:1020B0002A4943F4805385F88400A387FFF7F0FA98
:1020C000ECE70BB10AF0C2FD94F88B30013384F8D1
:1020D0008B30A38F43F48063A38795F87530033B5F
:1020E000012B0DD809F0D4FE04280DD1B4F85460AA
:1020F00000271B2EBB46B94694BF0026012651E798
:1021000004F0F4FA0028EDD100263746B346B14674
:1021100048E701235DE7002360E794F88B10012076
:10212000FFF7CCFA00287FF45FAFFFF77FFC002FAA
:102130003FF460AF9DF8081001A8FFF70FFC59E7C6
:102140009DF8081001A8FFF709FC52E7B4F8073022
:102150000133A4F8073077E7741C00209C1C002092
:10216000064B10B593F8442002F0FF0422B91C7608
:1021700005F0F8FC204610BD0C24FBE74C1C0020A9
:10218000094B0A4A10B51A60FFF7EAFF20B14FF475
:10219000A4712720FEF76AFB054C03F0FFF9A06548
:1021A00003F000FA206610BD20290020542400000E
:1021B0004C1C00202DE9F341924C089FCDE9000111
:1021C00094F8441001F0FF0511B90AB103B127B921
:1021D0004FF408712720FEF749FBDDE9000104F107
:1021E000280C63639DF82430626284F88A30276487
:1021F00084F8385084F88B5084F83E5084F8885026
:102200006584A58784F8395084F83A5084F8805062
:1022100084F830508CE8030015F09AFF6566E56697
:10222000A4F87050A5642565A4F85450E56A09F037
:10223000C3FE0AF0D3FC95F97C0005F1800709F094
:1022400023FFAE6A286A09F025FF30460AF080F8BD
:1022500095F8A40009F028FFAB8E4E2B02D9EB8E27
:102260004E2B01D809F004FE94F82860002E40F0AF
:10227000898019F0DCF895F87420634B4FF47A717B
:1022800053F8223003F5FA73B3FBF1F34633191810
:10229000304609F07FFF5D4B18680AF05FF86B6904
:1022A000E26AC4F88430AB6992F87460A36792F86C
:1022B0008D30A3F12A01012903D992F88E102A2921
:1022C0006BD194F82830002B64D192F83A12304642
:1022D00013F05CFF064605F13C083146404618F015
:1022E00010FB314617F03EFBB5F8483095F87510F5
:1022F000834228BF0346404684F87F3018F0AFFA87
:1023000095F8751095F893800429B5F8506008BFCA
:10231000032117F027FBB8F1000F01D1043080B280
:10232000864228BF0646F6B284F8896004F0DEF9DA
:1023300028B104F0E1F9864238BF0646F6B294F8B7
:10234000283084F85C60002B4CD195F892301BB19A
:1023500039462846FFF736FB0120FFF767FB0023CD
:1023600023606360A360B5F8863063802B88238088
:1023700095F8A4302371AB6F0BB101221A6002B043
:10238000BDE8F08119F053F895F8752000F165016A
:1023900001207EE792F8CA1299E7253B012B10D85D
:1023A000282910D094F82830C3B192F836315A0752
:1023B00012D413F001018AD1C3F340035B00D9B2F8
:1023C00085E728290AD194F828303BB192F83631B4
:1023D00092F86D201340EAE7042178E7032E08BF46
:1023E000042678E795F893301BB139462846FFF765
:1023F0001DFA0120FFF7D4F9E36AD3F8E00109F0F0
:10240000DFFFACE74C1C0020A07503002029002052
:10241000014B93F8880070474C1C0020054A938FAD
:1024200092F8800003F4805110B113F4C06F00D112
:10243000080B70474C1C0020024B93F83D00C0F382
:10244000C00070474C1C0020014B93F88B00704774
:102450004C1C002031190000791D00009518000067
:102460008D170000343270B5054692B20C461E46F8
:1024700013F066FD25B1034A556014745674147048
:1024800070BD00BFF01C00200138C0B2032808B5A1
:1024900004D940F211310620FEF7E8F9014B185C2F
:1024A00008BD00BFC67203000138C0B2032808B5DA
:1024B00004D940F211310620FEF7D8F9014B185C1F
:1024C00008BD00BFE37203000138C0B2032808B59D
:1024D00004D940F211310620FEF7C8F9014B185C0F
:1024E00008BD00BF447303000138C0B2032808B51B
:1024F00004D940F211310620FEF7B8F9014B185CFF
:1025000008BD00BF41740300F0B5284AA7B00446D7
:102510000D4610686B46516802AE0F2203C30021BE
:102520000DF189001AF09EFD0021102230461AF0AC
:1025300099FD16ABDDE9000183E80300234618ACE2
:1025400003F128071868083353F8041C2246BB42DD
:1025500003C21446F6D1802306AA8DF888300023E2
:1025600002F8013B0133102BFAD196E80F0012ACB0
:1025700084E80F000AAA214606A813F030FE0123C2
:102580000EAA214606A88DF84B3013F028FE2A46E5
:102590000EA90AA804231AF09CFC042305F11002DA
:1025A00029460AA81AF095FC27B0F0BDCA720300AC
:1025B00000487047400D030010B590F86232042BBC
:1025C0000CBF0124002406D1062380F8623203499F
:1025D000034818F08EF8204610BD00BFD5630100F7
:1025E000901D002038B50C4D02210C4C28461AF0E5
:1025F000BBFA60B11AF02FFAE0680130E06068437E
:1026000000F54330BDE838405A301AF022BA20694C
:10261000BDE8384013F083BE400D0300901D00203C
:1026200010B50CF0E9F8074C20B92069BDE810405E
:1026300013F075BE237D1BB1FFF7D4FF0023237574
:1026400010BD00BF901D002010B5094C237D5BB16B
:102650000AF094FE20B12069BDE8104013F05FBE7F
:10266000BDE81040FFF7BEBFBDE810400CF0D4B885
:10267000901D002010B5164C2061164812F0BCF8D1
:10268000144812F0C7F823691348D3F8D420D27C39
:10269000012A09BF93F85D320023B3FA83F35B0983
:1026A00023750023E3601AF0D4F920690BF0F6FEDD
:1026B00018B979218520FEF7D9F820690CF00AF8BD
:1026C00020B92069BDE8104013F029BE10BD00BF3D
:1026D000901D0020212600005A0C0300014B024AE5
:1026E0001A607047242900202C270000014B18682D
:1026F000704700BF2429002010B50D2140F6FF705F
:10270000FEF74EFD04460749074817F0ECFF0CB9E9
:102710000C2010BD94F86232062BF9D00AF022FE8C
:102720000020F6E7D9630100A51D0020B1250000B7
:102730001B630100752600001F630100492600008D
:1027400021260000B925000008B50CF055F828B97D
:10275000034B1868BDE8084013F047BF08BD00BF31
:10276000B01D0020F7B50446052900F20B81DFE813
:1027700011F00600A800AB0009010901A40090F8BF
:10278000623223B903B0BDE8F04012F0F3B890F81C
:102790006232052B05D10F220021204613F058FF8D
:1027A000F0E74FF40C71806811F0BAF8A368283B89
:1027B00018441AF04EF994F86232032B08D094F8BA
:1027C0006232022B04D040F247118E20FEF74EF801
:1027D000032384F86232D4F8D4300D21B4F8642293
:1027E0002046B3F847301344A381FEF733FD064675
:1027F0000E21FEF7D5FC69460546304617F019F95B
:1028000008B18421E1E794F85D3240F2712E95F829
:102810003E710199B5F83821C969B5F850014A43AC
:10282000B5F83A110EFB00F0B3FBF7F607FB1633D1
:102830005643DBB203F1010C4B430EFB03638342AF
:1028400001D98E21C1E7BC45A0EB030300D0F1B94B
:102850003244904202D8042284F86222D5F84C21F6
:10286000934218D2042284F8622223F07F43D4F8E2
:102870005022204663F31702C4F850220BF00EFEDC
:1028800060B9204603B0BDE8F04013F0AEBE0EFBC9
:1028900001F18B42DEE722F07F43E8E720460BF0B0
:1028A00019FF0028EDD0394811F0A6FF374811F084
:1028B000B1FF374B1C6003B0F0BD0BF0B5FF032236
:1028C0006AE74FF4F17180E7FF2380F8673290F8F0
:1028D000623203F0FF0213B980F86722EBE790F849
:1028E0006232052B07D10322002113F0B1FE002331
:1028F00084F86732F2E73023694680F82032B0F876
:102900006032ADF800300BF077F9BDF800300228E6
:10291000B4F86022A3EB020384F8B030E7D00128BA
:102920002CD1042384F862320D212046FEF792FC5C
:102930000E21FEF735FC94F85D3290F83E21B3FB92
:10294000F2F102FB11330133DBB29A4202D00423CD
:1029500084F86232D4F8D4302046B3F84710B4F883
:102960006432194489B2A1810BF080FF94F862327D
:10297000042BBCD1204613F038FDB8E720460FF0F9
:10298000E3F8D1E74FF4F4711FE700BF49270000D7
:10299000B01D0020014B024A5A607047B01D002054
:1029A00065270000024B0246183059681AF0ACB98E
:1029B000B01D0020024B034A1A60528B9A80704768
:1029C000B81D0020E6110020014B1868704700BFB9
:1029D000B81D002008B5034610465A1E032A10D819
:1029E0004A1E032A0DD8084A012951700CBF002144
:1029F0000A211071937091721946FEF703FE0020B0
:102A000008BD6FF01500FBE7E6110020074B5A8A5E
:102A100038B142F01002987A5A82DA8A9A8398770B
:102A2000704722F0100298835A82F8E7E6110020DE
:102A300010B4094C637A58B143F00403002963725F
:102A400010460CBF00230723637110BCFFF7DEBFE5
:102A500003F0FB03F2E700BFE611002040EA41006B
:102A6000014BD870704700BFE611002014280BD02E
:102A700028280BD00A280BD10323064A0020528BAA
:102A80001340054A938070470223F6E70023F4E7DA
:102A90001E207047E6110020B81D0020014B9888C9
:102AA000704700BFB81D002070B546680D4604464B
:102AB0000E213088FEF774FB064980F8BD50B43013
:102AC00017F011FE002386F849312046BDE870401A
:102AD00017F0FDBF592C00002DE9F041476805466D
:102AE00088460E213888FEF75BFB0D2104463888A6
:102AF000FEF756FB002680F86262094904F1B40033
:102B000084F8BD8084F8BE60A4F8C06017F0EBFDC7
:102B100087F84A612846BDE8F04117F0D8BF00BFEA
:102B2000C76901002DE9F0414668054690F800802C
:102B30000F4630880E21FEF733FB0D210446308806
:102B4000FEF72EFBB8F1000F03D096F88E30462B1F
:102B500015D0002384F84571A4F84831A4F8463113
:102B6000A8B994F8453104F1B4000B4984F8BD309C
:102B7000002384F8BE30A4F8C03017F0B4FD002361
:102B800086F84B312846BDE8F04117F0A0BF90F819
:102B90006232002BE5D0F2E7C769010038B543681F
:102BA00014460D460E211888FEF7FAFAB4B9B0F8AB
:102BB0004831B0F84621A0F848419B1AA0F8464198
:102BC0001BB290F8A4205AB980F8A5509C308472AA
:102BD00083810449BDE8384017F085BD0023F0E744
:102BE00038BD00BFC769010010B500880C460E2132
:102BF000FEF7D6FA90F872305BB980F8734014B9DA
:102C0000FF2380F8C23003496A30BDE8104017F056
:102C10006ABD10BDA16B010070B5466804460D4643
:102C20000E213088FEF7BCFA90F87C304BB980F862
:102C30007D5015B9FF2380F8C5300649743017F070
:102C400052FD002386F848312046BDE8704017F059
:102C50003EBF00BFEB710100F8B50C460E210646E1
:102C6000FEF7F8FA0E210746FEF79AFA054600230A
:102C700080F8C6303123A7802370737AE37090F810
:102C8000163103F03F03A37190F8F830012BE37184
:102C900055D190F804310026237290F80831637200
:102CA00090F80531A37290F80631E37290F807317D
:102CB000237390F80931637390F80C31A37390F883
:102CC0000B31E37390F80A31013BDBB2072B96BF5F
:102CD0001C4AFF23D35C2374D0F8F930C4F81130B8
:102CE000D0F8FD30C4F81530B0F80131A4F819302F
:102CF00090F80331E37690F80D31237790F80E3198
:102D0000637790F80F31A377E67790F8123184F863
:102D1000203090F8133184F8213090F8103184F885
:102D2000223090F8113184F8233002F089FC0368D6
:102D30001B0505D595F81531012B01D1E377F8BDB9
:102D4000E677FCE7D2720300502808B51DD018D8EA
:102D500028280CD8092806D9A0F10A020C4BD2B2B7
:102D6000D340DB0707D43221D620FDF77FFD322880
:102D700001D03C28F7D10A23B0FBF3F00138C0B2F0
:102D800008BD9128EFD10720FAE70620F8E700BF39
:102D9000010410404B680E2130B5054689B01888F3
:102DA000FEF7FEF904461B22002101A81AF05AF989
:102DB00094F8163194F8F82003F03F0343EA8213A5
:102DC0008DF8043003F0C003402B40F0A880D4F805
:102DD000F93094F80B21CDF80530D4F8FD3002F02D
:102DE0000F0294F80D11CDF80930B4F80131ADF8A7
:102DF0000D3094F803318DF80F3094F804318DF8CC
:102E0000103094F80831FF2B8DF811301FBF94F863
:102E100005318DF8123094F806318DF8133094F89E
:102E200007318DF8143094F809318DF8153094F885
:102E30000A318DF8163094F80C311B0103F0300381
:102E400013439DF8172022F03F0213438DF81730EB
:102E50009DF8183061F30303DAB28DF8183003F0EF
:102E60000F03012B0AD1134694F80E2162F30713C6
:102E70008DF8183094F80F318DF8193094F812014C
:102E8000FFF762FF8DF81A0094F81301FFF75CFF5B
:102E900094F810318DF81B00642B2CD025D8502BC2
:102EA0002BD03C2B05D81D2B07D80F2B0CD0142B67
:102EB0000AD05D21D620FDF7D9FCA3F11E011D4AE1
:102EC000C9B2CA40D107F4D50A22B3FBF2F3013BE1
:102ED000DBB28DF81C3094F81131142B11D0282B53
:102EE00024D00A2B24D04321E4E7782B07D0962B5B
:102EF000DFD10923EDE70723EBE70623E9E7082302
:102F0000E7E701238DF81D3094F815315A1E53421E
:102F100053419DF8172063F386128DF81720284639
:102F200001A917F07FF91C2009B030BD0223E9E7A1
:102F30000023E7E701041040436810B50C461888E9
:102F40000E21FEF72DF9044980F887407E30BDE858
:102F5000104017F0D1BB00BF592C00002DE9F04FF5
:102F6000466889B090F8008007468A4630880E216E
:102F7000FEF716F9044690F8C2B05FFA8BFBB8F181
:102F8000000F08D0D6F8805015F480650DD00120D0
:102F900009B0BDE8F08F96F88E30002BF7D13021C4
:102FA00096F88D0013F062FD054602F043FB0A041B
:102FB00001F4004940F1078196F89230002B00F0AF
:102FC000048196F89330002B00F0FF80B5B90D21F5
:102FD0003088FEF7E5F860B9BBF1000F0DD0504620
:102FE00001A917F056F901A814F002FA08BB1E2532
:102FF00004E090F86232002BEED00C25B8F1000FFF
:1030000003D096F88E30002BC1D12A4630213846A5
:1030100017F08AFD362386F88E30B9F1000F03D001
:1030200029463846FFF788FF384617F059FD00203B
:10303000AEE79DF8043003F0C003402B40F0AF80B2
:10304000214601A814F044FA002800F0BA809DF847
:103050000430C3F3050203F03F0103F0C003402B2B
:1030600040F09D8094F817311BB994F816319942BD
:10307000BDD1012384F8162184F8F830002384F8A8
:103080001731DDF80530C4F8F930DDF80930C4F83F
:10309000FD30BDF80D30A4F801319DF80F3084F8F3
:1030A00003319DF8103084F804319DF8113084F814
:1030B00008319DF8123084F805319DF8133084F8FA
:1030C00006319DF8143084F807319DF8153084F8E6
:1030D00009319DF8163084F80A319DF81730C3F392
:1030E000030203F03003B3FA83F384F80B215B0986
:1030F00084F80C319DF81830C3F30302C3F30313B3
:1031000084F80E319DF8193084F80D2184F80F31C0
:103110009DF81A30052B36D8013303EB83035B008F
:10312000DBB284F812319DF81B30052B30D8013307
:1031300003EB83035B00DBB29DF81C2084F81331A2
:10314000082A97BF254B96239B181B7A84F81031C9
:103150009DF81D300BB3012B0CBF1423282384F8DA
:10316000113102F06DFA03681B0544BF9DF817503A
:10317000C5F3801584F81551B8F1000F27D13B2312
:1031800086F88E3050E7062B0CBF50239123C8E7FA
:10319000062B0CBF50239123CEE70A23DFE79DF8CF
:1031A000043094F8162103F03F0393427FF41FAFDD
:1031B0000023012284F8F83084F8172184F81831AC
:1031C000DAE720251AE71A2518E72F2516E7D6F89B
:1031D000803043F48063C6F8803025E7D272030064
:1031E0002DE9F04146680446884696F88E707FBB0C
:1031F00002F020FA0B040DD41A223921204617F0D0
:1032000093FC3623204686F88E3017F069FC38464A
:10321000BDE8F08196F8923013B196F893300BB96F
:103220002F22EAE763680E211888FDF7B9FF0546EB
:1032300000F1E20300F1DA0200F1CA01404616F0A3
:10324000D1FF044905F1880017F053FA3D23D9E76F
:103250000127DCE75F760100436810B50C4618884B
:103260000E21FDF79DFF044980F89A409130BDE89A
:10327000104017F038BA00BFE57501002DE9F74F8F
:103280001E4613688346154637680093BB4204D92F
:103290004FF48D71D320FDF7E9FAD1F804A09AF824
:1032A0007F0002F07FFE04460AF13C0017F0D5FAD9
:1032B000DAF83C30610098421FFA81F838BF1846AE
:1032C000414600F5E979484610F02AFB9AF8742047
:1032D0002D4B00F11004DAF81C00414653F822305F
:1032E0004FF47A724C4403F2E733B3FBF2F3DBF8AA
:1032F0004C2197332732B62B024438BFB623B2FB9A
:10330000F0F25043019310F00BFB9BF83E218146F5
:10331000BBF83A014146019B5043DBF84C2102F1D6
:10332000480B40F2712202FB00BBDAF81C009B4400
:1033300010F0F6FADAF81C10D944484481429CBFD8
:10334000B0FBF1F301FB1300009B081A0139814225
:1033500028BF01468C4228BF0C46A34238BF2346F3
:10336000BB421C4628BF3C46A1422C6038BF2146C8
:10337000B94228BF39468C42316002D94FF4B2714C
:1033800088E703B0BDE8F08FA075030070B5441E58
:10339000E5B21F2D0ED8A1F2E2460D4DAE4209D87E
:1033A00040F27126012806FB02F505D001F19602D4
:1033B000954203D2002009E0002AFBD106FB03F06E
:1033C00005FB0411884234BF0020012070BD00BFFE
:1033D0001D043D0073B5466805460E213088FDF793
:1033E000DFFE2F4B4FF4FA72044690F82C11CDE912
:1033F0000023D0F8282114F0B8F9C4F84C010FF0DC
:10340000CDFB84F83E010FF0CFFB294601AB6A46A5
:10341000A4F83A012046FFF731FF009B019A23F000
:103420007F43F06994F83E11C4F8303122F07F43B5
:103430005032B4F83A510139D4F84C610244C4F81E
:103440003431694340F27125324405FB0122B4F85E
:103450001C11B2FBF0F20132A4F85011A4F838218B
:10346000B4F82221012A18D09533034405FB013317
:10347000B4F82011B3FBF0F39BB28B4238BF0B467C
:10348000A4F8523194F82C31A4F8542184F8563120
:103490000F2384F85A3102B070BD0023F0E700BF5B
:1034A000FF083D002DE9F04F466897B00F460546EE
:1034B0000E213088FDF774FE0D2104463088FDF79B
:1034C0006FFE06A98046384616F07BFF2F7896F8E7
:1034D0008D0037BB322113F0C9FA824694F8C83008
:1034E00083B303AA04F5AE7104F1F8000FF000F9FC
:1034F00096F88E90B9F1000F40F05A8102F09AF8D8
:103500000B0429D41A223221284617F00DFB36234A
:1035100086F88E30284617F0E3FA484617B0BDE823
:10352000F08F34280CBF4FF02A0A4FF0000AB8F190
:10353000000F05D098F862727A1E57425741CDE7C6
:103540004746CBE703ABD4F8F900D4F8FD10B4F844
:10355000012103C31A80CBE794F8C4300BB92F22A2
:10356000D1E7BAF1000F01D05246CCE70DF1180CAB
:103570000DF1340AD5F804E0BCE80F00AAE80F000A
:103580009CE807009DF818308AE8070003F03F0325
:1035900094F81621934213D194F8F830012B0FD1EF
:1035A00094F8173163B9BDF81930BEF886209B1A1C
:1035B0001BB2002BB8BF5B429BB2B3F5804F01D367
:1035C0001E22A0E7BDF81C309DF81B207A4942EA74
:1035D000032202F18073A3F5FA7323F07F438B4239
:1035E000EED8BDF81E309DF8201043EA01439A4200
:1035F000E6D8DEF81C209A42E2D90A99BDF82130BB
:10360000BDF8262021F07F419DF82500FFF7BEFE82
:103610000028D5D0BDF82D20BDF82B30012A3ED191
:10362000002BCDD1BDF82330002BC9D09DF84F30F1
:1036300003F00F02042A01D90F2AC1D14F2B03D95D
:1036400003F0F003F02BBBD19DF82FB0BBF1070FB7
:10365000B6D89DF831309DF830A01846019317F088
:10366000D4F90128ACD1019B082BA9D8BAF10F0FCE
:10367000A6D8504617F0C9F98246FFF7A5F9437856
:1036800053459DD394F80C1158460EF04FFD8245DA
:1036900096D303A80FF0E8F820B9482233E7002BAF
:1036A000C0D18DE7BDF82B2047F6FE739A421BD898
:1036B0009DF831309DF82FB00193FFF785F9222254
:1036C000824600210DA819F0CDFC3C4B52465946CC
:1036D0000D930DAB94F80C0114F056FA20B101993A
:1036E000686814F0C8F808B920220CE7B8F1000F98
:1036F00005D098F8623213B10FB90C2203E74023CA
:10370000BDF81C20204686F88E309DF81B3043EA19
:1037100002239DF82020C4F83031BDF81E3043EA62
:103720000243C4F83431BDF82630A4F83A319DF88C
:10373000253084F83E319DF824209DF8233043EA5B
:103740000223A4F83831069BC3F30F23A4F83C31BD
:103750000A9BC3F31703C4F84C319DF82C209DF845
:103760002B3043EA0223A4F852310B9BC3F30F23FF
:10377000A4F85431089BC3F30F23A4F850319DF8EB
:10378000313084F857319DF8323084F858319DF843
:103790002F3084F856319DF8303084F85A316968FA
:1037A00014F036F8064904F1AA0016F0A2FFB1E6BB
:1037B0004FF00109B1E600BF0B073D000004040013
:1037C0009D7701002DE9F04F466889B005460F4608
:1037D00096F88D0013F0BDFF002800F002810E2145
:1037E0003088FDF7DDFC02A90446384616F05BFE82
:1037F0009DF8083094F8162103F03F03934214D14A
:1038000094F8F830012B10D194F817316BB969682E
:10381000BDF80920B1F88630D31A1BB2002BB8BF0F
:103820005B429BB2B3F5804F14D343F21E330022A8
:103830001E21A6F81C313623A6F8C62086F88D3046
:103840002846FFF7ABF96B68002083F84A0109B0FE
:10385000BDE8F08FB4F83C31D21A1304E5D4BDF8BA
:103860000C309DF80B20604842EA032202F180737D
:10387000A3F5FA7323F07F438342D6D8BDF80E3008
:103880009DF8100043EA00439A42CED8C969994294
:10389000CBD9D4F830118A42C7D3D4F8342193421B
:1038A000C3D89DF81830BDF81680BDF8149048EACA
:1038B00003489DF81300B4F850314A464146FFF7DB
:1038C00065FD0028B1D0BDF81130002BADD09DF8BA
:1038D0001930072BA9D894F80C71184694F856B1F2
:1038E000394601939DF81AA00EF020FC394600904D
:1038F00058460EF01BFC009A019B824295D1B7FA04
:1039000087F718467F0939460EF010FC39460090BB
:1039100058460EF00BFC009B834286D8504617F0A9
:1039200074F8012881D1BAF1080F3FF67EAFD4F8C0
:103930004C3198453FF679AFB4F83A314B453FF6F4
:1039400074AF9DF81A10686813F095FF024650B9DD
:1039500043F220332021A6F8C600A6F81C313623F6
:1039600086F88D306CE7029B2046BDF80C20C3F32F
:103970000F23A4F83C319DF80B3043EA02239DF855
:103980001020C4F83031BDF80E3043EA02439DF8F0
:103990001820C4F83431BDF81430A4F83A319DF839
:1039A000133084F83E31049BC3F30F23A4F838315D
:1039B0009DF81A3084F857319DF81B3084F858313F
:1039C0009DF8193084F85631BDF8163043EA0243A9
:1039D000C4F84C31422386F88D30696813F018FF23
:1039E00031E7012033E700BF0B073D0043682DE9B5
:1039F000F04F93F88E2089B005460F46432A40F0D9
:103A0000AA80002683F88E6017F07BF86B680E2181
:103A10001888FDF7C5FB03A90446384616F099FD42
:103A20009DF80C3094F8162103F03F03934240F0C8
:103A30009E8094F8F830012B40F0998094F817316B
:103A4000002B40F094806968BDF80D20B1F88630F5
:103A5000D31A1BB2002BB8BF5B429BB2B3F5804FA9
:103A600080F08580B4F83C31D21A13047FD4BDF8BD
:103A700010209DF80F30624843EA022303F1807260
:103A8000A2F5FA7222F07F42824270D8CA699A4245
:103A90006DD9D4F83021934269D3D4F834219342BC
:103AA00065D8BDF818309DF81780BDF8159048EA24
:103AB00003289DF81400B4F850314A464146FFF7F8
:103AC00065FC002853D0BDF81230002B4FD09DF874
:103AD0001A30072B4BD894F80C71184694F856B14D
:103AE000394601939DF81BA00EF020FB394600904B
:103AF00058460EF01BFB009A019B824237D1B7FA61
:103B000087F718467F0939460EF010FB39460090BA
:103B100058460EF00BFB009B834228D8504616F007
:103B200074FF012823D1BAF1080F20D8D4F84C3102
:103B300098451CD8B4F83A314B4518D89DF81B70FD
:103B4000686839469DF91C8013F095FEC0B976B1BE
:103B5000002220210DE093F88D303F2B4DD116F03F
:103B6000B6FF6B68002283F84A2101264EE7002247
:103B70001E212846FFF712F8002009B0BDE8F08F9B
:103B80003EB994F85731BB42F1D194F958314345CD
:103B9000EDD1BDF8102028469DF80F30002143EAF2
:103BA0000223BDF81820C4E94C33059BC3F30F234F
:103BB000A4F83A319DF8143084F83E31BDF8123043
:103BC000A4F83831039BC3F30F23A4F83C319DF8CC
:103BD000173043EA0223BDF81A20C4F84C319DF98E
:103BE0001C30A4F85621012284F85831FEF7D6FF84
:103BF0006968204613F00CFEBEE70120BDE700BF58
:103C00000B073D00304BF0B5B0F868700C4611461C
:103C10001A88B0F8666085B097425D8828BF17465D
:103C2000964228BF16461B2E2ED0B5F5A47F2DD068
:103C300040F6480301AA9D4228BF1D4614F0D7FA5A
:103C4000BDF80A30BB4228BF3B46E380BDF80C30CC
:103C5000AB4228BF2B462381BDF80630B34228BFB4
:103C600033466380BDF80830AB4228BF2B46A380A3
:103C7000FF232370E3881B3B9BB2E02B08D940F263
:103C8000E7613920FCF7F2FD1B2FCED105B0F0BD66
:103C900063881B3B9BB2E02B02D940F2E961F0E75D
:103CA000238940F64812A3F5A4739BB2934202D92C
:103CB00040F2EB61E5E7A388A3F5A4739BB29342BE
:103CC000E4D940F2ED61DCE7C01D0020F7B5002328
:103CD00004460E461746CDE900336846FDF79AFACA
:103CE00008B1002016E0009DA542F6D03046EB1C3E
:103CF00014F031FA3946AA7815F0ACFD0028ECD062
:103D000005F10A036A7A04F10A01607A15F0A2FD4E
:103D10000028E2D003B0F0BD054A516A02F11D034C
:103D2000127F11F8030BC0F3801015F093BD00BF94
:103D30004023002010B503210020FDF731FA04468E
:103D400070B90321FDF7F0F9044620B94FF4597119
:103D50003920FCF78BFD034B93F95C1017F036FE0E
:103D6000204610BDC01D00202DE9F04F87B007464A
:103D70008846008804A915F05CFE064600287CD120
:103D8000059D95F87D31002B6DD0B8F1020918BF63
:103D90004FF0010995F88E30272B95F8E13043EA72
:103DA000D3030CBF89F0010A4FF0000AD90702D4EF
:103DB000BAF1000F63D0B8789DF8104008B901F04F
:103DC00043FC8DF80B00F87808B901F03DFC2E4B50
:103DD0008DF80C00D3F800B0BBF1000F0BD00AF047
:103DE000010320460DF10B022946009303ABD8478F
:103DF000044600283AD19DF80B20B2B39DF80C3050
:103E00009BB3164695F87D2032B1B20703F002034A
:103E100037D5B3B302231E46FF2285F83521B9F109
:103E2000000F28D195F8342102F0FF041ABB85F861
:103E3000348103A985F83661284685F83731BB8877
:103E4000A5F83831BA78ADF80E308DF80C20FA7834
:103E50008DF80D2015F0A7FD002385F8353120469B
:103E600007B0BDE8F08F814694E70924BAF1000F4E
:103E7000F5D00023C6E73A24EEE70446EFE71A241C
:103E8000EDE70924EBE700BF50290020034B93F82E
:103E90002200C04300F00100704700BF7C220020D8
:103EA000044B93F82200C0F3400080F0010000F0C2
:103EB000010070477C22002038B515F0CAFC0025AF
:103EC00001F0CCFE224C01F0CDFB16F0EDFB03F02F
:103ED000D9FC02F0FFF807F0A9FB012001F066FB16
:103EE0001C4B1D4A29461D601C4BA4F854501A60F7
:103EF0001B22DD839A80F9221D8483F822501D77CE
:103F0000174B22835868174A1B8922601422E061EC
:103F100004F124002384A576A580A57519F0A2F8E4
:103F2000012342F2107204F13A0084F8243084F83C
:103F30003930C4E90A2218F0DAFB04F1440018F021
:103F4000FBFB0022002384F86850C4E9182338BD25
:103F5000C01D00202829002003021B007C22002015
:103F6000E37203001B004801064B41F64C521B2133
:103F70005A611974C3E9022241F288329A61FFF74B
:103F80009BBF00BF7C22002073B5344D0446AB6854
:103F9000C363334B1B79003B18BF012380F87D308E
:103FA000304BC36117F00BFB064601F043FB830661
:103FB000297C53BF1B236B88AA881A46A4F8663055
:103FC000294BA4F868201B6884F84410A4F84660C4
:103FD0001BB194F97C1020889847244B1B6813B1BF
:103FE0002349208898472349204615F0DCFC01230B
:103FF0006386214B1B6813B10021208898471F4B13
:104000001B6813B10021208898471D4B1B680BB11A
:10401000208898471B4B1B680BB120889847AB88BA
:1040200004F114006A8869780333033201919BB26A
:10403000297892B2009104F11801FDF74BF96369F8
:1040400023B940F2BE613920FCF710FCA36913B913
:1040500040F2BF61F7E7002002B070BD7C22002073
:10406000C01D002000093D003C290020302900200F
:10407000C81D00209A220020542900204429002035
:10408000482900204C2900202DE9F34104460E4622
:1040900017F0DDFC002800F0B080204617F01AFD74
:1040A00030B1B6F80130013B7F2B01D9122004E07A
:1040B000204617F013FD18B90C2002B0BDE8F081BE
:1040C000204617F033FB0028F6D1204617F068FC95
:1040D00007460028F0D1204605F080FA0028E5D0F8
:1040E00042F21073B6F80180F178204603FB08F81D
:1040F00017F0DBFC04213078FDF752F80546062165
:104100003078FDF74DF82DB140B141F64B413920E3
:10411000FCF7ACFB08B3054690F8E570384E336801
:10412000DBB14035284617F019F9B0B1284617F031
:10413000F5F890B93FB1334B28461B68984760B1FA
:1041400041F65F41E3E730493A463368284649691A
:10415000984710B141F66441D9E7204617F0B2FC08
:10416000014640B94246204604F0EEF9002842D00C
:1041700041F66D41CBE7204617F0ACFC40B9022177
:104180000DF10600FCF798FF054658B90D2094E79D
:10419000204617F0B2FC0028F1D11C4B1B79002BF4
:1041A000EDD183E7002101F033FFBDF80630204652
:1041B00029462B8017F0CCFC204617F09EFC88B9CE
:1041C000216A204617F0A3FC01462846FFF7DCFED3
:1041D00042462946204604F0B7F9024620B141F68E
:1041E000904194E70121F0E7084B9B6D1BB105F569
:1041F00095712846984700205FE742205DE700BFA1
:104200002C290020342900207C220020C01D002001
:10421000024B1B6803B118470C2070472829002067
:10422000B0F9002011B292B2F8B502F5A0639BB2CA
:10423000B3F5206F37D8B0F902301DB29BB203F549
:10424000A06080B2B0F5206F2DD802F2F64040F2A7
:10425000BE5480B2A04228D803F2F64080B2A042F9
:1042600023D800294FF00A04C4BF093211B2002D2F
:10427000C8BF093391FBF4F4C8BF1DB207F0DEF9E3
:104280000A2367B2064695FBF3F1384649B207F0B8
:10429000C7F9074B1B6813B1A01B40B208B9002037
:1042A000F8BD9847FBE73020FAE71120F8E700BF98
:1042B00038290020034B5A8802801B788370002025
:1042C000704700BF7C2200207FB5837806461A2BFA
:1042D00008D8042B04D9334A22FA03F3DB0705D4A8
:1042E00012251AE0292B01D03B2BF9D13088B0F5EB
:1042F000706FF5D2694615F09CFB88B9019B93F865
:10430000282102F0FF05C2B9B27883F82921FF22E3
:1043100083F82821684614F010F9284604B070BDCF
:1043200009213088FCF73CFF0446002837D002A959
:10433000B0F8AC0115F07DFB08B10C25EDE70821C4
:10434000B4F8AE01FCF72CFF20B940F61E2139204D
:10435000FCF78CFA03781BB994F8C831032BECD125
:10436000039B93F83E21002AE7D194F8F02102F054
:10437000FF05002AE1D1B4F8B021A3F8402194F858
:10438000B82183F84221027D83F84321B27883F873
:10439000442184F8F021FF2283F83E21BDE7022565
:1043A000BBE700BF200038040188A1F11B039BB2CA
:1043B000E02B0CD8428844F24810A2F5A4739BB2BB
:1043C000834204D8034B002019805A807047122082
:1043D000704700BFC01D0020034B1A885B88028015
:1043E00043800020704700BFC01D002038B5027810
:1043F000447802F0010302F0020254EA030101D101
:10440000112038BDBAB98578002DF9D0002B18BF1E
:10441000002400E01D46204613F0DCFE0028EFD00B
:10442000284613F0D7FE0028EAD0054B00209C77E1
:10443000DD771884E5E7002BECD000242546EAE779
:104440007C22002013B50088694615F017FB04464E
:1044500020B9019890F83A311BB13A24204602B0B5
:1044600010BD90F8DA3003F0FF04002BF5D190F87E
:10447000D1309B0706D1FF2380F83A31684614F00B
:104480005CF8EBE70249D23016F036F9E6E700BFF8
:1044900001B10100F7B5067804460F46EF2E03D9A7
:1044A0001226304603B0F0BD90F901204378002A6F
:1044B000F6DB82789207F3D113F0100048D19D0605
:1044C00003F0030241D5002AEAD119074FD503F0C2
:1044D0006702012AE4D1627A013A062AE0D8A27A78
:1044E000032ADDD813F0040102D1023A012A03D8CD
:1044F000E27A012AD4D811B9A27C032AD0D8227D2D
:10450000002847D0012ACBD1237E012BC8D8002810
:1045100050D06378D90703D500F0D8FF002850D0D9
:104520006378227D03F01803082B5AD1022A48D160
:1045300003213046FCF734FE0546002857D017F01B
:10454000F5F800285FD00C26ABE7032ABDD1A7E71A
:1045500013F0600FA4D103F00702052A05D003F081
:104560000F010D22CA40D2079AD51D07B3D4217975
:10457000E278E57942EA0122617942EA0142A179D1
:1045800041EA0521257A41EA05418A4288D81F2A55
:10459000A1D885E7022A04D103F06F03092B7FF429
:1045A0007FAFA37D013B022B3FF67AAFE37D0F2B5C
:1045B000AAD975E701F048F8820707D4237D022BBA
:1045C00001D111266DE7A37D022BFAD001F03CF852
:1045D00043079ED4237D032BF3D0A37D032B98D1D7
:1045E000EFE7022AA4D0237F002BA1D0E9E7032123
:1045F0003046FCF799FD0546002843D0224B93F93D
:104600005C1017F0E3F90021304617F0DEFC28BB00
:10461000284617F054FA21463870E074284605F011
:104620003DF8E37E0646002B3FF43BAF00287FF4C5
:1046300038AF0246E96C6846FCF72CFF3246E86C5E
:10464000012111F0D2FCE96C68460422FCF722FF3C
:1046500032463146E86C11F0C8FC22E7403016F0D3
:104660007DFE0028D4D0637813F0330F7FF418AFA9
:10467000A67D2846296A17F04AFAFDF715FF8642FB
:10468000C6D060E707260CE7C01D002030B50279D0
:104690008BB00346042A4FD84088B0F5804F4BD8E2
:1046A000264900241144ADF800408DF808408A7C6A
:1046B0004D7B42F010028DF8244042EA4502CD7D48
:1046C000097F42EA850242EAC102694602F01F02FE
:1046D0008DF80020BDF80020ADF809201A888DF86B
:1046E0000E00000A8DF80B20120A8DF80D408DF88F
:1046F0000C208DF80F008DF810405A7BD3F807007E
:104700008DF811205A79059002A88DF812209A7917
:104710008DF81320B3F80B209B7BADF818208DF893
:104720001A307F238DF81B304FF00113CDE9073489
:10473000FFF7B0FE0BB030BD1220FBE7E3720300C1
:104740000278034672B1427862B142881A2A09D9C6
:1047500082881A2A06D90068034A106000209B88C4
:1047600093807047122070477C220020026800204E
:10477000014B9A60704700BF7C2200200378A3F1B0
:104780000A02112A9BBF024A0020122013747047AC
:104790007C220020014B187600207047C01D0020AD
:1047A000014B587600207047C01D0020024B1B684B
:1047B00003B11847112070475829002008B505207B
:1047C00000F000FF06F010FD014B024A9A6508BD9B
:1047D000C01D0020053C000008B5212000F0F2FEBD
:1047E000222000F0EFFE06F00BFD054B054A1A6093
:1047F000054B064A1A60064B064A1A6008BD00BF00
:1048000038290020DFC401003C2900203DB400000D
:10481000402900200DC4010037B5044600F00AFF0E
:10482000090403D40C24204603B030BD2588694612
:10483000284615F023F904460028F4D1019B93F88B
:10484000922082B393F893206AB393F8E32012077F
:10485000E8D593F8E530DB09E4D00E212846FCF7D3
:104860009FFC054690F8C230002BDBD0B0F85A30E0
:104870009B0713D590F87C30002BD4D1112348220C
:10488000214680F87D3018F0EDFBFF2385F8C53018
:10489000064905F1740015F026FFC4E7019BFF22CD
:1048A00083F84821BFE72F24BDE700BFEB7101006B
:1048B0002DE9F04FB0F8008091B004460EA94046B3
:1048C00015F0DCF8064620BB1D229DF838100F9825
:1048D00001F018FF002840F086810E214046FCF7C9
:1048E0005FFC054690F8C63003F0FF06002B40F051
:1048F0007C810F9B93F89220002A00F0788193F836
:104900009320002A00F0738193F8E330180704D451
:104910000C26304611B0BDE8F08F95F8C230002B60
:10492000F6D0617904F10D07A0780D91217BE27D2D
:104930000139237994F806E0C9B294F8079094F805
:1049400008A0022994F809B097BFDFF8ACC2FF2194
:104950008C449CF8211094F81AC0CDF828C094F823
:1049600019C0CDF824C094F818C0CDF820C094F830
:104970000AC0CDF81CC094F80BC0CDE9051C0D99F8
:10498000CDE903AB00913946CDE901E912F0D4FC41
:10499000002800F02E81E378012B00F22A81A37A0F
:1049A000A3B995F8F23013F0010F00F02281FEF761
:1049B0000BF8237E81460193237B0093E37A62798F
:1049C000217912F055FD40B91126A2E7012BEED155
:1049D00095F8F23013F0020FE7E7237E05F1480067
:1049E0000193237B0093E37A6279217912F040FDF1
:1049F0000028E9D0A27A002A40F0818095F84B3057
:104A000013F0020FE0D005F1F80013F0AAFB20B17B
:104A100095F81611A3789942D6D1E37ED90705D52A
:104A2000012A73D1B9F81230DB06CDD50D214046ED
:104A3000FCF7B6FB13F09EFB00287FF469AFA37868
:104A400085F81631D4F80D30C5F8F9307B68C5F813
:104A5000FD303B89A5F80131E37D85F803312379E9
:104A600085F804316379FF2B85F8083117BFA379E6
:104A700085F8050185F80531E07985F80601237A86
:104A800085F80731637A85F80931237B013BDBB276
:104A9000022B97BF584AFF239B1893F8213085F8C3
:104AA0000A31E37A85F80B31A37A85F80C31237E3D
:104AB00085F80D31637E85F80E31A37E85F80F31C0
:104AC00000F0BEFD03680722B5F85C1013F4006324
:104AD0001CBFE37E03F0010385F81531B9F814001B
:104AE00012F064F995F815318046002B5ED0A37A58
:104AF000072283B9B5F86410B9F816000FE0012A4F
:104B000081D195F84B3013F0010F7BE7002A8DD14E
:104B1000B5F85A3088E7B5F85E10B9F81C0012F005
:104B200045F90922B5F860100746B9F8180012F0E7
:104B30003DF98146FDF7B2FF0222B5F8621012F08E
:104B400035F9B8F1050F35D808F1010808EB8808E8
:104B50004FEA48085FFA88F8052F85F8128131D8A6
:104B6000013707EB87077F00FFB2B9F1080F85F81F
:104B7000137197BF204B96234B4493F8243085F84C
:104B8000103120B301280CBF1423282385F81131DC
:104B9000FF2285F8C620E378012B1AD185F8F8307A
:104BA00085F817310F9B83F84921B2E60722B5F843
:104BB0005E10A1E7B8F1060F0CBF4FF050084FF0A0
:104BC0009108C9E7062F0CBF50279127CDE70A238C
:104BD000DCE7012300210EA885F8F83085F81711CD
:104BE000FEF7AAF995E6452693E63A2691E62F26A2
:104BF0008FE612268DE600BFE372030073B504460C
:104C00000DF032FE00285FD017F021FF304A92F8F5
:104C1000683053B12F4ED2E91835C31A61EB050540
:104C20009E424FF00003AB4150D2012382F868301E
:104C30000023C2E91801CDE900336846FCF7EAFA1F
:104C4000D0B100204FF40033CDE900036846FCF7F3
:104C5000E1FAC8B10023CDE900336846FCF7DAFA7F
:104C6000C0B100224FF40033CDE900236846FCF7C1
:104C7000D1FAE0B1002005E0009B93F84C31002B05
:104C8000DBD03A2002B070BD009B93F84C31002B72
:104C9000DCD0F6E7009890F8E5305906DDD500F550
:104CA0009472234630F8801B13F041FBD5E700983F
:104CB00090F8E5305B06D9D500F59472234630F8BC
:104CC000801B13F034FBD1E71220DBE70C20D9E77F
:104CD000C01D00203F420F0003882DE9F7439FB21B
:104CE00004460B80B7F5706F04D31226304603B02C
:104CF000BDE8F0836946384614F0C0FE0646002839
:104D0000F4D10E213846FCF74BFAA37890F816211F
:104D100005469A42E9D1F83013F023FA0028E4D08E
:104D2000032AE2D8B4F80330002BDED0B4F80930FF
:104D3000012B09D0B4F80520002AD6D0B4F80730EA
:104D4000002BD2D09A42D0D8227BE37A43EA0223C6
:104D5000627B43EA0243614A03F18073A3F2E243B8
:104D600023F07F439342C0D8E17BA37B43EA012336
:104D7000217C43EA014303F18073A3F2E24323F071
:104D80007F439342B1D8637C072BAED8A37C013B11
:104D9000032BAAD8207D0F28A7D895F80C9115F0E1
:104DA00034FE8046607CB9FA89F149090DF0BEF9FC
:104DB00080459AD3637D053BDBB2F92B95D9A37D62
:104DC000053BDBB2F92B90D90D213846FCF7E8F909
:104DD00013F0D0F900287FD1FDF7F6FD0746207DBE
:104DE00015F013FE95F84930834201D20D267DE778
:104DF00005F148033A46617C95F80C0112F0C4FEB7
:104E00000028F3D0B4F8037040F27123B4F809001D
:104E1000BAB25A4383B2012B5BD0019BB4F805C0F0
:104E2000D3F81CE0BCF57A7F61460EF1FF3328BF52
:104E30004FF47A711344B3FBFEF30133B4F807E087
:104E4000B3F57A7F28BF4FF47A739BB2734528BFBE
:104E50007346634538BF634694F80CC094F80BE082
:104E600094F80F804EEA0C2E94F80DC04EEA0C4ECA
:104E700094F80EC04CEA082C94F81080A5F81E1186
:104E800047F6FE714CEA084CA5F81C718B42A5F858
:104E9000220128BF0B46964594BFC5F824E1C5F80A
:104EA0002421944594BFC5F828C1C5F82821A5F848
:104EB0002031637C85F82C31A37C85F82D31E37C8F
:104EC00085F82E31237D85F82F31FF2385F81831A1
:104ED0000CE700210B46BFE70C2607E71E043D0048
:104EE0002DE9F84F0D21044640F6FF70FCF758F904
:104EF000002840F08C822278531E022B02D9122007
:104F0000BDE8F88F6378FF2B06D1B4F81B104D076E
:104F1000F5D4022A0CD10FE0002BF0D0191FC9B232
:104F2000FA29ECD9022A05D003F0FD010129E6D0C7
:104F3000032A01D0022BE2D0A378032BDFD8E37839
:104F4000013B022BDBD82679012ED8D86379062BBA
:104F5000D5D8A379013B022BD1D8E379013B032BB0
:104F6000CDD8627A237A43EA0223A27A43EA024343
:104F700040F2E1429342C2D9B4F80B20617BD2B136
:104F800040F2712042439A4215DA0129B7D894F9C8
:104F90000E2002F17F03DBB2932B01D97D2AAEDD17
:104FA000E37B502B1BD8312B07D80A3BDBB21E2BDF
:104FB000A5D8864A04E02029E8E7323B844ADBB2E0
:104FC00022FA03F3D8079AD5237C502B1CD8312B17
:104FD00008D80A3BDBB21E2B91D87C4A05E0912B06
:104FE000F2D08CE7323B7A4ADBB222FA03F3D907DC
:104FF00085D5637C3C2B00F2C4801D2B07D80F2B7A
:105000000DD0142B0BD07AE7912BF2D077E71E3B13
:105010006E4ADBB222FA03F3DA077FF570AFA37CA6
:105020000A3BDBB21E2B3FF66AAF694A22FA03F352
:10503000DB077FF564AFE27C0A2A3FF660AF40F2FF
:105040001743D340DF077FF55AAF94F814A0BAF1A5
:10505000070F3FF654AFA37D053BDBB2F92B7FF67C
:105060004EAFE37D053BDBB2F92B7FF648AFA37E65
:10507000002B3FF444AFB4F81B90564B19EA030FD2
:105080007FF43DAF94F81D80B8F1680F3FF637AF5D
:1050900019F0010F04F11E077ED0A57F6B1E472B70
:1050A0003FF62DAF3A46002312F8011F01334E2977
:1050B000DBB23FF624AF9D42F6D10135EDB219F0D7
:1050C000040F05D07B5D002B3FF419AF0135EDB225
:1050D00019F0080F05D07B5D042B3FF610AF0135AA
:1050E000EDB219F0100F10D0504617F805B00DF0C2
:1050F00011F80DF033F80138C0B2834503D9BBF184
:10510000FF0F7FF4FCAE0135EDB219F0200F1CBF8C
:105110000835EDB219F0400F0CD07A5D6B1C402AB7
:105120003FF6EDAEFB5C1BB1443B4A2B3FF6E7AECE
:105130000235EDB219F0800F05D07B5D022B3FF6F2
:10514000DEAE0135EDB219F4807F07D07B5D072B11
:1051500002D9802B7FF4D3AE1135EDB219F4806FF4
:1051600002D0012E3FF4CBAEA8457FF4C8AEFDF7C8
:105170002BFC2279C37805461341DE072CD411207D
:10518000BEE6782B3FF44BAF04D8502B3FF447AF2B
:10519000642B37E7962B35E738460DF065FB002882
:1051A0003FF4ADAE94F82830012B3FF6A8AE0AD1FB
:1051B00094F82930012B3FF6A2AE94F82A30023B36
:1051C000062B3FF69CAE0D2579E700BF0104104089
:1051D0000104004002FAFFFF2378032B02D063781A
:1051E000032B02D12B79D807C9D56379002B49D17C
:1051F000AB79002BC3D0A379012B05D06A7A013B90
:1052000042FA03F3D907BAD5E2796B789A42B6D855
:10521000A98AE07B12F0B5FF0028B0D0E98A207C93
:1052200012F0AFFF0028AAD0627C2B8B322A4FD01D
:1052300033D81E2A49D02BD80F2A3DD0142A3FD06C
:10524000A27C6B8B0A2A4CD0142A4ED0207DE37CA2
:1052500000284DD1002B92D10CF05CFFAB7883423B
:105260008DD32179207D0CF061FF6B78834286D34A
:105270002379002B40D0012B47D043F275513920C0
:10528000FBF7F4FA013B012B94BFEB792B7AB0E7E3
:10529000282AD5D1C3F3C00314E0642A1ED006D84F
:1052A0003C2A18D0502ACBD113F0400F06E0782AC0
:1052B000C6D1C3F3002305E013F0010FC0D15EE7B0
:1052C000C3F34003002BBBD159E7C3F38003F9E7D5
:1052D000C3F30013F6E7C3F34013F3E7C3F3C013BC
:1052E000F0E713F0010FB1D149E713F0020FFAE72D
:1052F000AA7A9A42B0D942E7A27DFF2A08D00123B8
:105300009340EA7A134203D139E7E27DFF2AF7D1CD
:10531000B4F81B3013F0C20F7FF431AFDA0707D4B3
:1053200094F82830012B03D16B8A5B077FF527AFF8
:1053300040F6FF7011F0DBFA0E21054640F6FF70D3
:10534000FBF72EFF064648B90E2140F6FF70FBF72B
:10535000EBFE48220021064617F084FE15B943F201
:105360009B518CE7B4F81B3006F1F90813F0010FDC
:105370000DD1D4F81E3031462846C6F8F9307B6886
:10538000C8F804303B89A8F808300DF003FA002370
:10539000C5F8D480A5F8183286F8163185F85D3244
:1053A0002D64032385F862322946204608F0D4FC98
:1053B00005F1400617F0FBFAB4F80B3040F2712209
:1053C0001BB353430027A5F89C20C5F89830A5F8D7
:1053D0007A70FDF78BF92867304602F065FAB4F869
:1053E0001B3013F480630BBF217A3A46627A40F691
:1053F000340101BFA07A41EA02211A4641EA004184
:105400003046BDE8F84F02F05FBA1346DAE70C20E9
:1054100076E500BF08B50378012B08D0022B0BD02E
:105420007BB9D0F80120084B9A61002008BD407874
:10543000BDE80840FDF71ABBB0F901000DF08EFB86
:10544000F3E71E20F2E700BF7C22002008B501220E
:10545000054B1A7104F0ACF805F026F814F035F895
:10546000BDE8084000F084BF2C1E002010B5064C9B
:10547000064904F1080013F0CEFF04F10C000449C2
:10548000BDE8104013F0C7BF2C1E00209011002073
:105490009811002010B5094C094904F1080013F0D7
:1054A000BAFF04F10C00074913F0B5FF04F1100036
:1054B0000549BDE8104013F0AEBF00BF2C1E002010
:1054C000A0110020A8110020B0110020014B187974
:1054D000704700BF2C1E002010B5064C064904F191
:1054E000080013F098FF04F10C000449BDE81040D7
:1054F00013F091BF2C1E0020B8110020C011002015
:1055000010B52E20084C00F05DF8302000F05AF85D
:1055100004F10800054913F07EFF04F1100004496E
:10552000BDE8104013F077BF2C1E0020C8110020EA
:10553000D011002038B5074C0D4600F0F5FEA068EC
:10554000256013F060FFFEF70FFD01F04DF9012318
:10555000237538BD2C1E0020014B187D704700BFFD
:105560002C1E002010B50C4CE06813F04CFF206995
:1055700013F049FFFEF7A0FC202000F037F82F20A1
:1055800000F034F8262000F031F8292000F02EF841
:105590000023237510BD00BF2C1E0020004870475B
:1055A000411E002000487047431F0020014B83F834
:1055B000190270472C1E0020014B93F81902704706
:1055C0002C1E0020C208074900F007000123834079
:1055D000885C03438B5404490B78934238BF1346CD
:1055E0000B70704738110020462000200F4B01211E
:1055F00010B503EBD002C40800F0070001FA00F078
:10560000195D21EA0001195509490B78A34205D11A
:10561000002012F8014914B100B10B7010BD002B2D
:10562000FAD0013B0120DBB2F3E700BF38110020C4
:1056300046200020014BD3E90001704738110020BB
:105640000048704740110020054B1868C0F3C02285
:10565000C0F30020400040EA820040F001007047A3
:105660003811002008B50EF0A7F90023074A32F8D8
:105670002310814205D302EB83029378044A13700E
:1056800008BD01330C2BF2D10023F7E7147303009C
:1056900047200020024B1878072828BF07207047B2
:1056A0004720002010B54468238884F88B11A4F8A3
:1056B0008C3194F87400FCF707FF84F88E0194F89D
:1056C0007500FCF701FF054984F88F0104F5C170EE
:1056D00015F012F8002384F8343110BDE99401006C
:1056E000406807490388A0F87E3190F86C3080F854
:1056F000803190F86D3000F27510037314F0F6BF2E
:10570000FF9401002DE9FF4744688946054694F857
:105710008DA0AAF1260359425941052A36D194F8A1
:105720008E30282B37D104F18E0799F8018099F833
:10573000026008F0070806F0070608F1FF33721E42
:1057400003EA0803324013431FD1304613F04DFFE4
:1057500060B394F87430984228D094F836211642F9
:1057600013D0BAF1260F21D094F86D2016421DD126
:105770000138013B474AC0B2DBB21044032B007929
:105780000FD81A441379834210D9284604B0BDE8D3
:10579000F04713F0E8BEBAF1260F79D104F18D0776
:1057A000C3E74FF4E4710620FBF760F8404613F0BE
:1057B0001CFF40B194F87530834204D094F837311F
:1057C00018EA030FE1D0B9F8039003AB2046324644
:1057D000009341464B4613F015FF6C6878BB94F874
:1057E0003431012B28D1B4F8863004F5327294F8A4
:1057F0007410B4F8380113F067FF0646C0B90146CB
:105800002846FFF74FFF3E706B6803F18E02974208
:1058100002D1002283F88E206B6803F18E0297423A
:1058200032D1284615F06DF9002004B0BDE8F087AC
:105830002C2384F88D30E7E784F83401E4E7B4F8EA
:105840008630A4F8C89209F1FF39A9EB030947F69D
:10585000FD731FFA89F9994506D92823284684F84B
:10586000B13001F055FCD7E794F88E300E2B02D002
:105870000B3B012B01D82A23F0E7BDF80C30A4F82C
:10588000CA322A233B70C7E7002283F8CA20CBE73D
:105890000220CAE744730300034B002283F8502020
:1058A000A3F85220704700BF4A200020044B93F811
:1058B0005020012A1ABF036001200020704700BF5A
:1058C0004A200020064B024693F8501001291BBFC6
:1058D0000120A3F85220002083F85000704700BF39
:1058E0004A200020054B024693F8500028B113606F
:1058F00011B1B3F852300B80012070474A200020CC
:10590000054B002293F85000A3F8522010B101205B
:1059100083F85020704700BF4A200020034B93F8C3
:105920005000B0FA80F04009704700BF4A200020C4
:1059300050B90A4A0120134603F8010B0868C2F85F
:1059400001008A889A807047012805D1034B0A68B4
:10595000D8719A608A889A81704700BF9E20002083
:1059600050B90B4B187888B1D3F80120B3F8053043
:105970000A6001208B807047012806D1044BD8793A
:1059800020B19A689B890A60F3E70020704700BF46
:105990009E20002010B9044B18787047012806BFDC
:1059A000014BD879002070479E200020F7B58A88E7
:1059B00000238DF80600ADF8042008680B4A8DF826
:1059C00007300146147802F5A872019DD8B28442CE
:1059D00001D8082007E052F8087F01335668AE422C
:1059E00008BF8F42F2D103B0F0BD00BFB02000204D
:1059F000084B0146002230B55C7803F20113D0B2A7
:105A0000844201D8082004E013F8015F01328D427E
:105A1000F5D130BDB0200020F8B52D4C63782218A8
:105A2000013B92F80251DBB28342637030D01A011D
:105A30000101961C8F1C2644274406F1100C56F8D1
:105A400004EB664547F804EBF9D1823282312244F7
:105A5000214402F1100652F8047BB24241F8047B63
:105A6000F9D1E118221891F8026182F80261062644
:105A70007343704303F5857300F58570E618E358AA
:105A800027182350B388BB8091F83A3182F83A3115
:105A90002846FFF7ADFF082818D12378013BDBB279
:105AA0009D42237012D02B3305F12B0204EBC3036C
:105AB00004EBC20293E8030082E803002078FFF7BA
:105AC00097FF08281CBF241884F80251F8BD00BFB6
:105AD000B0200020F0B5254D89B095F8984105F229
:105AE0009911684622460FF063FC2146684613F080
:105AF000CFFE0446B8B300EB400102A8C9B2FBF7E1
:105B000029F9631E95F8A1610124DBB295F898117B
:105B100005E0721CB2FBF1F001FB1022D6B206F1D7
:105B200020020DEB020010F8202C002AF1D103EB2B
:105B3000430100F8204C06EB460220312A44694418
:105B400011F8187C82F8A27111F8177C11F8161C54
:105B500082F8A37182F8A411013BAA19DBB282F882
:105B60009941FF2BD2D109B0F0BD00BFB020002079
:105B700070B5064688B00C46002A4ED0294A92F8E5
:105B8000A131D01890F8991119B9FF212820FAF7FE
:105B90006DFE03EB43010133114491F8A251E5700E
:105BA00091F8A35191F8A41125716171002180F839
:105BB000991192F89811B3FBF1F001FB103382F8C0
:105BC000A13192F8C23123B9174902F5DD7014F002
:105BD00090FD65790D220021684605F03F0545F0EE
:105BE0004005657117F03EFAE37804AA69468DF81E
:105BF0000F30304623798DF80D508DF80E30042388
:105C000017F067F99DF81F3023709DF81E30637000
:105C10009DF81D30A37008B070BD03216018FBF71C
:105C200099F8D6E7B0200020D55A0000044B5A78E6
:105C3000824286BF1B1893F84A010020704700BFBC
:105C4000B0200020044B5A78824286BF1B1893F87C
:105C500042010020704700BFB0200020064B002208
:105C60004FF461711A8083F8C32183F8C421A3F82B
:105C7000C61183F8C2217047B02000202DE9F047FB
:105C80008246894617469846FFF790FE0828054643
:105C9000064603D0FFF7ACFE082860D1324C63788B
:105CA000072B5ED8082D15D12678731C072E23707C
