:020000040000FA
:10000000604A0220E15E02001FA00300CD5E0200F4
:10001000CD5E0200CD5E0200CD5E0200CD5E02002C
:1000200000000000000000000000000081600200ED
:10003000CD5E020000000000DD5F0200CD5E020028
:1000400095620200956202009562020095620200CC
:1000500095620200956202009562020095620200BC
:1000600095620200956202009562020095620200AC
:10007000956202009562020095620200956202009C
:10025000956202002DD303009562020095620200B0
:10026000956202009562020017D3030095620200B6
:10027000956202009562020095620200956202009A
:10028000956202009562020095620200956202008A
:10029000956202009562020095620200956202007A
:1002A000956202009562020095620200956202006A
:1002B000956202009562020095620200956202005A
:1002C000956202009562020095620200956202004A
:1002D000956202009562020095620200956202003A
:1002E000956202009562020095620200956202002A
:1002F000956202009562020095620200956202001A
:100300009562020095620200956202009562020009
:1003100095620200956202009562020095620200F9
:1003200095620200956202009562020095620200E9
:1003300095620200956202009562020095620200D9
:1003400095620200956202009562020095620200C9
:1003500095620200956202009562020095620200B9
:1003600095620200956202009562020095620200A9
:100370009562020095620200956202009562020099
:100380009562020095620200956202009562020089
:100390009562020095620200956202009562020079
:1003A0009562020095620200956202009562020069
:1003B0009562020095620200956202009562020059
:1003C0009562020095620200956202009562020049
:1003D0009562020001D3030095620200956202005B
:1003E0009562020095620200956202009562020029
:1003F0009562020095620200956202009562020019
:100400009562020095620200956202009562020008
:1004100095620200956202009562020095620200F8
:1004200095620200956202009562020095620200E8
:1004300095620200956202009562020095620200D8
:1004400095620200956202009562020095620200C8
:1004500095620200956202009562020095620200B8
:1004600095620200956202009562020095620200A8
:0C04700095620200956202009562020095
:10048000054B00221B78826001330260034A426000
:10049000C371FF2303727047481C002080010800CD
:1004A000064A074B02604FF424729B788280082230
:1004B000C371002382710372704700BF03F2010011
:1004C000481C0020084B094A1B7892F828201B0280
:1004D0000749C27103F52E7301608380082383717D
:1004E000FF230372704700BF781D0020481C0020C6
:1004F0008D9F0100074A9378D2781344064A026020
:100500004FF4BA72C371FF23828004220372827196
:10051000704700BF481C0020A39F0100064A937843
:10052000D2781344002282600260044A4260C371A0
:10053000FF230372704700BF481C002070000800B2
:1005400008B50122094B83F82A2005F0F7FA08F0D4
:10055000A9FC1CF0B8F806490D2000F0E3FC0549A1
:100560000E20BDE8084000F0DDBC00BF481C0020A4
:10057000C5040000F50400002DE9F341C41D002866
:10058000064624F007040CBF0020204600F0DCFCE7
:10059000071E04DA6FF00B0002B0BDE8F081374DA2
:1005A000E988A88803316B7A03302A7A89B280B24D
:1005B00018F0F4F80028EDDB3C44A978EB78002E25
:1005C00004F10304194424F0030400FB01F10CBFFF
:1005D0000020204600F066FE20440EB90028D9DB3A
:1005E000EA7A0446B2B1EB7B697C13441944FF29D3
:1005F000D0D80330002EAA89C9B220F003040CBF62
:100600000020204600F0C0FE0028C3DB04440EB9E1
:10061000002CBFDB012000F08DFCB0B1A97BA1B1A3
:1006200095F82B3033B340234FF481720734002EFA
:1006300024F007040CBF0020204604F0E1F8002855
:10064000A8DB04440EB9002CA4DBAB7AFBB1EB7A37
:10065000B3B10734002EA97A24F007040CBF0020A0
:1006600020460AF0EBFC002894DB04447EB9002C01
:100670000DDA8FE725232822D8E700BF481C002089
:10068000012000F057FC10B1AB7B002BE1D1734B84
:100690001B6893B1A97D81B10334002EEA7D24F05B
:1006A00003040CBF0020204698470028FFF672AFD5
:1006B000044416B9002CFFF66DAF694B1B688BB173
:1006C000297C79B10334002E24F003040CBF0020F0
:1006D000204698470028FFF65DAF044416B9002C69
:1006E000FFF658AF5F4B1F68B7B1697CA1B1033407
:1006F000002E2B7D24F0030408BF0020009318BFB8
:100700002046EB7CAA7CB8470028FFF643AF0444A0
:1007100016B9002CFFF63EAF072000F00BFC98B195
:10072000A97D89B10334002E2A7E24F003040CBF76
:100730000020204600F0FEFE0028FFF62BAF044408
:1007400016B9002CFFF626AFB6FA86F795F8230007
:100750007F09A0B103346B7FA97E24F007041944FC
:100760003B4644F00404C9B2224600F023FF0028AF
:10077000FFF610AF044416B9002CFFF60BAF95F846
:10078000241000294CD004F10708002EEA8C28F030
:1007900007080CBF0020404618F014F8041EFFF6AE
:1007A000F9AE4444002E3ED1002CFFF6F3AEA97FF3
:1007B000002945D095F82230002B41D02A8C0734EF
:1007C000002E02F1240224F007080CBF002040464E
:1007D00092B217F0F7FF0028FFF6DCAE404416B9DE
:1007E0000028FFF6D7AE03302B7FA97E20F007004C
:1007F00019443B4640F0040495F82200C9B2224651
:1008000000F0CAFE0028FFF6C5AE044486B9002CED
:10081000FFF6C0AEEB6AF3B1C6B1EC620020BBE6F6
:10082000002EC4D08846E98C40460FF03DFABEE762
:100830002A8C4046A97F083292B20FF03BFAE9E7D2
:10084000002EE7D0002211461046F6E728343FF587
:10085000A1AE2046A0E6002EE0D1FAE7442A00200F
:10086000482A00204C2A00201FB572B6194B1C6B79
:10087000ECB9BFF34F8F1849184BCA6802F4E06215
:100880001343CB60BFF34F8F00BFFDE7B2FBF6F21F
:100890002B465D1C002AF9D1DBB203F110056D4433
:1008A00005F80C2C0A2233B901A8A047E1E702465B
:1008B00000230A26EDE7013BDBB203F110050DEB47
:1008C0000506B0FBF2F502FB1500303006F80C0C03
:1008D0002846E8E7481C002000ED00E00400FA0587
:1008E00013B5124C68462389ADF80030E388ADF8A3
:1008F0000430A388ADF8023007F0D4FB18B1FC2116
:100900009C20FFF7B1FF207D07F022FC08B1FF21FA
:10091000F6E7E07C07F016FC10B14FF48071EFE7CA
:1009200094F829000DF0F2F802B010BD481C002028
:1009300070B50546002858D016F066FE18B94FF07D
:10094000FF34204670BD15F0F3FAB0F5FA7FF6D803
:10095000274C012625630025284684F8345025704D
:1009600084F82B50E56284F82A500EF031FC1A22EC
:10097000294604F10F001FF0A7FC1B2308210322C6
:10098000A3802846E3800223A1721F216372E375CE
:10099000F72322722384FB23A2734922E3840A23D0
:1009A000A1812946E27484F82930A670E670E672C7
:1009B000A674267605F016F92A463146304605F02B
:1009C000CDF8044620B140F2B7319C20FFF74CFF30
:1009D0000246014605F0F0F8EFF3108572B600F01C
:1009E0000FFE002DADD162B6ABE76FF01504A8E79E
:1009F000481C002038B51446002840F0EE80784DA1
:100A000095F83430032B00F0E58019B312B96FF07C
:100A1000150038BD0139172900F2DF80DFE811F039
:100A2000180029002C0042006C007500940048005A
:100A300078007B008E004E005400620067009A0030
:100A40009D00AC00AF00B200A300B500B900D20019
:100A50001378AB700020FFF78FFD0028B7BF01238C
:100A600002236FF00B0085F83430A8BF85F83430CE
:100A7000CFE71378EB70EDE71379002BC7D05379EC
:100A8000002BC4D01288FB2AC1D863881B3B9BB2C1
:100A9000E02BBCD81A2ABAD92368A2886B60514BC4
:100AA0009A80D7E71378EA7B9342B0D3EB72D1E711
:100AB0001378EA7A9342AAD8EB73CBE71378EA7AF1
:100AC0009342A4D86B74C5E71378002B9FD053785A
:100AD000013BDBB2F82B9AD8138892786B82424B99
:100AE0009A70B7E7107868750CF06AFEB2E7137871
:100AF000002B8CD02B76ADE7012000F01BFA237879
:100B000008B1012B83D9AB73A4E71388AB81A1E7AC
:100B10001378AB759EE7072000F00CFA18B923781C
:100B2000012B7FF674AF072000F004FA18B1237888
:100B3000002B3FF46CAF2378EB758BE71378082B11
:100B40003FF665AF2B7485E71388FF2B3FF65FAF49
:100B5000AB727FE713786B767CE713780E2B3FF64A
:100B600056AFAB7676E72368204AC5F81E30636837
:100B70005360238913816DE71378EB766AE7137866
:100B80006B7767E713782B7764E7137885F828305D
:100B900060E704F0DDFF98B1007900F001026178B0
:100BA000207804F0DBFF00287FF433AF6378012B5B
:100BB0007FF650AF0EF0D6FF00287FF44BAF26E74C
:100BC0000246ECE713785A1E092A3FF620AF85F853
:100BD00029303FE74FF0FF301BE76FF02C0018E79C
:100BE000481C00204C1C00205A1C0020661C0020C1
:100BF000F8B50D46064630B329B311F0070422D1EB
:100C0000124F97F83430012B02D16FF00B00F8BD72
:100C1000032B02D14FF0FF30F9E700F0A1F80028D4
:100C2000F8D02846FFF7A8FC0028EEDB1EF00DFFE9
:100C30003046F96A08F050F9FFF752FE03232046C8
:100C400087F83430E3E76FF01500E0E7481C002038
:100C500010B5074C94F83430032B03D108F054F945
:100C600009F040F817F033FE002084F8340010BD7E
:100C7000481C002050B1074B03F1140253F8041B29
:100C8000934240F8041BF9D1002070476FF0150023
:100C9000704700BFB57C040008B5094B93F82B30B2
:100CA0005BB108F0C9F80749012000F03BF906499B
:100CB0000020BDE8084000F035B908F09FF8F2E7E1
:100CC000481C002081040000A104000008B508F0C1
:100CD000D5F807F059FA03490F20BDE8084000F0A5
:100CE00021B900BF1D05000008B50A4B93F82A3052
:100CF0000BB9FFF725FC04F02BFFC1780120C1F3ED
:100D0000400104F06FFF12F03FF8BDE8084014F016
:100D1000E7BB00BF481C002008B5094B93F82A30F8
:100D20000BB9FFF70DFC04F013FF0121C078084058
:100D300004F058FF12F030F8BDE8084014F0D8BBBA
:100D4000481C002002680020014B1A60704700BF59
:100D5000801C0020014B1B68184700BF801C00202E
:100D6000024B1868003818BF01207047801C002013
:100D7000074B4FF0FF3141F6FF72C3E900120549FE
:100D80000022C1E900221F21C3E90212704700BFFF
:100D900020110020841C00203F280CD801380B4B68
:100DA000C0F3421200F01F0053F8223023FA00F083
:100DB00000F001007047FF2806D04038044BC0F314
:100DC000421200F01F00EFE70120704720110020C1
:100DD000841C0020074B0146006849681A4603C27C
:100DE00040F48C2200201A6041F0107242F4FF623D
:100DF0005A607047201100200246034B006851687A
:100E000003C30020704700BF841C00200246034B30
:100E10000068516803C30020704700BF28110020FC
:100E200008B5382800F1FF33DBB205D108F0DAF855
:100E30004078C0F3C00008BD5909054A03F01F03FC
:100E400002EB81029068D84000F00100F3E700BF98
:100E5000201100200A8870B595B2C67CC2F30E023C
:100E60000488023602F118033444C35AA4B233444E
:100E70002344013BB3FBF4F303FB0422438892B207
:100E80009342044B8BBF2B40AB4313439BB20B806D
:100E900070BD00BF0080FFFF4A1E062A08B503464A
:100EA000084604D84FF4D1711520FFF7DDFC094A3C
:100EB000914202D940F2A311F6E711B903B11960CA
:100EC00008BD2BB11B680022C3E901211A1D1A605D
:100ED0000430F5E7FAFFFF7F10B5114B00EB41043A
:100EE0001A786389B3FBF2F303FB0223013A1A4435
:100EF000B2F5706F0279807828BF00231A440B186E
:100F0000B2FBF0F100FB11215B1AB3FBF0F100FB27
:100F1000113313446FEA43436FEA5343638110BDB7
:100F20008C1C0020024B03EB80035960704700BF0C
:100F30008C1C0020034B03EB80035868003818BF5B
:100F4000012070478C1C00202DE9F04F10F0070A9B
:100F500085B0054604D040F26F111720FFF784FCDE
:100F6000534F04464FF0010B07F15406B146B0460B
:100F700057F8043B8DF80BA03BB101A898479DF8AA
:100F80000A30082B01D9F521E7E79DF80B1041BB8A
:100F900005B131604F4506F10406E9D1002D6FD04F
:100FA0000022DFF810911427964689F8002058F89F
:100FB00027A0013FBAF1000F55D09AF804609AF8C3
:100FC00002C0FF2E60D039460023481C38D19C4413
:100FD000BCF1FF0F3FD90AB189F800E04FF49A71D4
:100FE000BBE79DF80AC04B1D60465A0004EB430363
:100FF000022838BF0220441E40422344BDF8084066
:101000006444CCF1000C0340013C04EA0C04B4F548
:10101000803F02D340F205119FE775B19A1A326002
:101020009170148082F803B09DF80C001071019843
:101030004FEA104C1081A2F806C004FB0134A9E766
:1010400058F8210028B190F804B0B34504BF807867
:101050001B180139B9E7DBB2E6458AF804303CBF1A
:101060005FFA8CFE01227B1CA1D10AB189F800E055
:10107000142640F6FF6A58F82670B7B9013EFAD236
:10108000601B05B0BDE8F08F0023E5E707EB4103E7
:1010900009F101093846A3F80AA0FFF71DFF5FFA1E
:1010A00089F1BB788B42F1D8E8E74FF00009F6E709
:1010B000901C00208C1C002038B54FF6FF730246B0
:1010C0000380184B03EB8103986DA8B184780379F2
:1010D000B3FBF4F104FB1133DBB2194600EB41051D
:1010E000B5F90A50002D0EDB0131B1FBF4F504FB1C
:1010F0001511C9B28B42F1D1002038BD6381BDE822
:10110000384017F018BB00EB41046389C3F30E03AA
:101110001380C278002AF1D14FF4E5711720FFF750
:10112000A3FB00BF8C1C00201C4B03EB810370B59C
:101130009C6D054644B3030404D54FF4EC711720AD
:10114000FFF792FB0146204617F0D8FAFF28014628
:1011500004D02046BDE8704017F0EDBAA078B5FB8A
:10116000F0F300FB1353DBB219460A1D04EB4206F1
:10117000B6F90260002E09DB0131B1FBF0F200FB91
:101180001211C9B28B42F0D1002070BD8B4201D048
:101190000023E37004EB42025580DAE78C1C002048
:1011A000094B03EB8103014610B59C6D204617F0F7
:1011B000A5FAFF28014604D02046BDE8104017F0EC
:1011C000BABA002010BD00BF8C1C0020F8B5104B2F
:1011D000074603EB810301469C6D204617F08EFA0B
:1011E000FF28054611D0E288238953EA024606D03B
:1011F0000146204617F09FFA01463846B047204680
:101200002946FFF769FE0020F8BD0520FCE700BF76
:101210008C1C002038B50E4B0446827903EB820308
:10122000986D08B9052038BD8278E1799142F9D2EC
:101230004B1CE37100EB41035D89B3F90A30002BCD
:10124000F3DBA58017F077FA20600020EBE700BF02
:101250008C1C002008B5124B03EB81039A6D22B958
:1012600040F246211720FFF7FFFA9178831A481DB4
:10127000A3EB40031088B3FBF0F3002B01DB994292
:1012800002DC40F24921EDE702EB4302B2F90A30F9
:101290005089002B02DA40F24B21E3E708BD00BF82
:1012A0008C1C002070B5044610F003000E4603D0DD
:1012B0004E211820FFF7D8FAFFF7EEFD054624B1BE
:1012C000034831460460FFF7E7FD284670BD00BFC4
:1012D000381D00202DE9F14FDFF870B01E4607469B
:1012E0000D46DBF8003090469DF828A09DF82C9024
:1012F0001BB960211820FFF7B7FA52460921404672
:1013000017F080F84A4684B20921304617F07AF87F
:1013100081B2DBF80000214417F0C4F9386018B935
:10132000286001B0BDE8F08F0444534641460922CD
:101330002C60386817F029F84B4609223146286896
:1013400001B0BDE8F04F17F020B800BF381D0020F5
:1013500070B50E46044617F068F80546304617F09B
:1013600064F8044B2A1821461868BDE8704017F04D
:10137000BEB900BF381D0020024B186808B117F035
:1013800085B97047381D00201F2AF8B5044613465A
:101390000ED89200033222F00303B3F5803F2DD222
:1013A000184DACB1A00710D068210920FFF75CFAF6
:1013B000FF2B4FEA420204D9FF339A42A8BF1A46D4
:1013C000E8E77C2AB8BF7C22E4E729706C602B81B7
:1013D00022F0030228230127120403FB01F06B68AB
:1013E0000025120CEEB2B14200D8F8BD14B1261897
:1013F0001F705E60104401352833F3E74FF0FF3073
:10140000F3E700BF3C1D0020154A002170B553686A
:101410001578C8B2854203D8BA210920FFF724FA0B
:101420001C461846013114F8286B0EB92346F0E724
:101430000021997001241289996103F126055C70DD
:101440009208D96103F11E04596824F8022FA542BD
:1014500043F8041F1144F8D100234361037070BDA9
:101460003C1D00204B782DE9F04106460C4602F069
:10147000040702F0FB05E3B1A5BBFF23A3707B08C3
:1014800004EB57073A7D032A02D1022D18BF01331E
:10149000E2180121117503F10C01002204EB830312
:1014A00024F811205B68A27030463360B280BDE83A
:1014B000F081002DE1D1012301F11E028D61204652
:1014C0004B7004F1260C1A4BCD611B8949689B08AF
:1014D00022F8023F944540F8041F1944F8D1002334
:1014E0006361CAE7D1F8048014220021A01861705A
:1014F0001EF0EAFE0E4B1B89B3F5FF7F0FD25A0890
:101500009B1A9BB208EB0301C4F804802384A160FA
:101510006284C4F80C80A3842161E284ADE7B3F552
:10152000EE6F4FF0FF02EBD940F27263EAE700BFC3
:101530003C1D00202DE9F84305460C46F720052107
:10154000914616F05FFF061E21DB1DB906FB04F075
:10155000BDE8F88315F0030703D098211920FFF7A1
:1015600083F9DFF83080C8F81050A8F81460BBB2D7
:101570009C42EBD9B8F814504B46D8F8100005221D
:10158000F72107FB0500013716F0FFFEEFE74FF0EC
:10159000FF30DDE7501D002007B5CDE900230B46E5
:1015A00003490246081D17F06CF903B05DF804FB0F
:1015B000681D002013B5064CCDE900230B460246FA
:1015C00004F1080104F10C0017F05BF902B010BD42
:1015D000681D002008B54B1E032B03D92321902042
:1015E000FFF742F90028054A0CBF05230C2303EB43
:1015F0008103053323F00103137008BD781D00201B
:10160000114B01224FF0FF3000215A60C3F808034C
:10161000C3F80015C3F804255A6040F6FE72C3F8FB
:1016200008034020C3F8001503F570330749C3F8D9
:101630000825C1F88800BFF34F8FBFF36F8FC1F843
:101640008801C3F8082570470060045000E100E0FD
:101650000A4606483D2302F8033BC368C1F803303D
:101660000369536043699360704700BF7C1D00208D
:10167000024B5A8C02435A845B6A18477C1D002037
:10168000014B00215B6A18477C1D002070B5194C86
:10169000054694F828604EB1012807D1638C1A07DB
:1016A00004D594F830300BB1012070BD0129FBD86E
:1016B000636B284698470028F6D094F83800002835
:1016C000F2D11EB9012D0BD03046EEE7002DECD142
:1016D000638C9B0704D594F8300080F00100E4E7A8
:1016E000608C0028E0D194F83930002BDDD194F8DB
:1016F0003A00F2E77C1D002010B5154C0DF004F8FF
:101700000DF028FDA08FFFF7BBFF237E63B12246BB
:10171000104904F1190052F80C3BE3606368536010
:10172000A36893601CF0A3FC0B4BA28F93E803000B
:1017300009F0C4FEE36A188809F01AFC236C94F8D7
:10174000381094F83E009847002384F8443010BDC8
:101750007C1D002051160000A41D0020034B93F8AF
:1017600044300BB1FFF7C8BF704700BF7C1D00209D
:1017700070B5214C0646A36DE56AA3644FF48173EE
:1017800094F85C00A4F84C3095F8933095F87510F7
:1017900000EB83002EB9FF2803D195F874308B42FB
:1017A00001D00CF045FE95F89330FBB1206E0DF0A2
:1017B00091F8216EA06C0DF053FC5EB995F8753070
:1017C000033B012B2B8F8CBF00202820184480B2B4
:1017D0000DF0E4F8A88E0CF0B7FD95F87410002019
:1017E0000DF022F9022384F8443070BDA06C0DF096
:1017F00071F80DF0AFFCE0E77C1D0020F0B591F82A
:10180000686087B00C4606BBCA883346134F04F1A4
:10181000800190F87500903497F82850013897F8B7
:101820005C70003DC0B218BF0125032810D8059692
:10183000002604960A4E305CCDE902700220CDE904
:1018400000540DF029FB07B0F0BDD1E91E23DDE700
:1018500040F22C410620FFF707F800BF7C1D002056
:10186000670E04002DE9F041234C06460F4694F81C
:101870004430012B5FFA83F804D040F62F01272073
:10188000FEF7F2FFE56A95F8843053B10021042099
:1018900085F88410FFF7ECFE94F828300BB185F83A
:1018A000858095F88830042B0DD114490220FFF76C
:1018B000DFFE94F8283033B1E36E1B789A1E534252
:1018C000534184F8303095F8933023B105F180010D
:1018D000E06AFFF793FF1EB1BDE8F041FFF70CBFD0
:1018E000002FF9D031463046FFF7D0FE0028F3D163
:1018F000BDE8F041FFF73CBF7C1D0020E81D002043
:1019000008B5094B93F84420022A04D040F2E6219E
:101910002720FEF7A9FFDA7A42F00102DA72BDE869
:101920000840FFF7E9BE00BF7C1D0020F7B5184C4A
:101930000646656F0DB1236D23B940F2E77127208C
:10194000FEF792FFB4F8543001F003012F466B709C
:101950002B7823F003030B4307F8033B3846B4F816
:101960005420216D15F0A8FF0DF1020201A9A06F0E
:10197000A564276516F080FE019816F06BFE012223
:10198000B4F854103060A06F16F00FFE03B0F0BD35
:101990007C1D002070B591F8686086B00C4606BBCF
:1019A000CA88334690F8740004F18001114D9034D8
:1019B000013895F82850C0B2B5FA85F503284FEAEA
:1019C000551511D805960026009504960A4E305CF0
:1019D0000390FB20CDE9014004200DF05DFA06B034
:1019E00070BDD1E91C23DDE740F22C410620FEF753
:1019F0003BFF00BF7C1D0020670E04002DE9F04F67
:101A0000B94C85B0E76A97F8741058B997F89320E5
:101A100094F85C3003EB8203FF2B03D197F8753009
:101A20008B4202D0FF200CF003FD02A9AF4819F051
:101A300097FE8346A0B3029A53786266A4F870308A
:101A400003B1D31CE36600251378C3F3001384F8B5
:101A5000393097F89230002B00F06B81B4F8703079
:101A6000002B00F06681206E0CF034FF2A46D4E98A
:101A700018100DF02FF918B9D4E918010DF086FAF5
:101A8000F88E0CF061FC97F8751001200CF0CCFF7B
:101A9000012384F8883084F8443005B0BDE8F08F25
:101AA000E66A8DF8050096F88830ADF80600052B3B
:101AB00000F20C81DFE813F006000D01E100E10007
:101AC000FA00FA0094F87F300DF1060103A8A6F899
:101AD0006430ADF8063007F051FB40B1039D35B1DD
:101AE000012384F88030042386F88830DBE096F800
:101AF000CF30002B40F0A6800DF105020DF106015C
:101B0000D4F8840016F0B8FC0546002800F09A804E
:101B10009DF805B0BBF1000F1FD00146D4F884003A
:101B200016F094FD16F096FDD0F800A0D0F80490C1
:101B300080465AEA09037ED1002388F8003088F8ED
:101B4000013088F8023088F8033088F8043088F8CB
:101B5000053088F8063088F80730BDF80630002BCD
:101B600078D1012386F8883001234FF0000B84F8E8
:101B70008030BDF806306566A4F8703003B1EB1C08
:101B800096F8888096F889A0B8F1020F96F88A90A6
:101B9000E36600F0A380A8F10408B8F1010F00F299
:101BA0009B80BBF1000F00F0A5800025E36E1B7841
:101BB0001B2B40F0BB80012106F110000CF080FCD3
:101BC0004FF003080122616E4FEACA0A4FEA890901
:101BD0000B780AF0080A09F0040903F0F30343EA5A
:101BE0000A0343EA090323F0100343EA051323F031
:101BF000030348EA03030B70B4F870304B70022300
:101C0000606EA4F86830037823F0200343EA42139F
:101C1000037052B1E36A197C5B7C032903F01F0354
:101C200008BF002143EA8113837005F0010584F8A1
:101C3000395015460DE71EF047F9824579EB010151
:101C4000BFF47AAF00230122294DADF8063086F8A3
:101C5000882090E79DF805301BB92B80AB700323DB
:101C600080E72B7803F00303012BF8D0022386F8DA
:101C70008830002386F8953076E7B6F864300DF1A9
:101C800005020DF10601D4F88400ADF8063016F017
:101C9000F3FB054620B940F20D512720FEF7E4FD85
:101CA000012384F88030BDF8063064E70DF10601A9
:101CB00003A807F063FA08B1039D15B940F21C515F
:101CC000EBE7012384F8803005230DE740F226512D
:101CD000E3E7074D00234EE74FF00108BBF1000F8B
:101CE0000ED000252A466EE77C1D0020A41D002092
:101CF000F81D00201B78022B3FF457AF4FF003086C
:101D0000D4F8840016F010FC50B9B8F1030F3FF47A
:101D10004CAF07F04FFA80F00105EDB2002252E718
:101D2000B8F1030F4FF00105F8D13FE74FF003087A
:101D3000F4E7606E0CF0CEFD0DF00CFA2946606EF3
:101D40001DF0AEFE9CE600BF2DE9F04F0023794C5C
:101D500085B080468A46E56ACDE9003394F8443080
:101D6000022B04D04FF40C612720FEF77DFDA26CFE
:101D700051781378A4F8541003210A44A4F84C10A5
:101D8000226503EA01028DF80820C3F3C0028DF832
:101D90000920C3F380028DF80A20C3F30012C3F3B5
:101DA00040138DF80B208DF80C3095F893300028F7
:101DB00000F06F81D3B10DF0EBF9831EDBB2012B84
:101DC00004D8FFF799FC05B0BDE8F08F70B9B4F8FE
:101DD00054305BB195F88A309DF8092003F0010377
:101DE0009A4203D1012384F83E30EAE7524A02A91D
:101DF000A2F1280019F0B6FC8346002849D1B4F8B6
:101E0000541011B1A06F16F0B0FBA38F9DF80A100B
:101E100043F400736067A38795F889300133DAB221
:101E200003F00103994236D0C146BBF1000F2DD11A
:101E300095F88A309DF8092003F001039A4225D1D4
:101E4000B4F854609DF80830002E7BD05A1E012A49
:101E500078D8A38F95F8937043F48053A3870CF040
:101E600089FA042894F8893006D1002F0CBF1F226C
:101E70001B22934228BF1346B4F854209A424ED9ED
:101E800094F8383043F0100384F838300026374691
:101E900070E00020B9E795F888305BB3013B85F826
:101EA0008920DBB2042B0FD8244A13441B79002B62
:101EB000BAD0022B0BD16946D4F8840016F0FEFA92
:101EC00088B940F2F7614FE740F2D6614CE7032B47
:101ED00010D107F061F910B940F2017144E7002117
:101EE0000820FFF7C5FBD5E93C32013342F100027F
:101EF000C5E93C32002194F8283085F888103BB1C0
:101F000095F8853023B1102085F88510FFF7B0FBD8
:101F1000A38F4FF0000943F40063A38785E7636F45
:101F2000002BB3D094F88A3053B12020FFF7A8FBE0
:101F3000ACE700BF7C1D0020CC1D0020670E040014
:101F40009DF8083095F88A20032B02F1010285F8EC
:101F50008A2000F093805A1E012A00F28180002E10
:101F600094D000264746D5E93E32013342F10002C3
:101F7000C5E93E3295F8923023B105F1800128463B
:101F8000FFF708FDBBF1000F40F0AD80636F9DF8D7
:101F90000B20002B40F0A580B4F85430B3FA83F343
:101FA0005B09012A14BF002303F0010384F83A30CF
:101FB000BAF1000F00F099800CF060FD002F40F0A6
:101FC000A7800126A38F5A0606D44020FFF758FBAE
:101FD000A38F43F04003A387B9F1000F10D094F80A
:101FE000283043B1B4F80720B4F805301343B5F8EE
:101FF0008620134304D0B4F809300133A4F8093023
:10200000B8F1000F00F08A80B4F805300133A4F86D
:102010000530002384F88B30434808F00FFF009808
:1020200030B116F017FB00220272294607F074FF48
:10203000019B33B100221A720C222946019807F045
:1020400039FF002E7FF4BDAEA38F1B063FF5BBAE5C
:102050008020FFF715FBA38F43F08003A387B2E630
:10206000002E3FF414AF002B7FF410AFD5E93E32C1
:10207000013342F10002C5E93E3207E7A38F012098
:102080002A4943F4805385F88400A387FFF7F0FAC8
:10209000ECE70BB10DF096F894F88B30013384F82F
:1020A0008B30A38F43F48063A38795F87530033B8F
:1020B000012B0DD80CF05EF904280DD1B4F8546052
:1020C00000271B2EBB46B94694BF0026012651E7C8
:1020D00007F0D6FF0028EDD100263746B346B146BB
:1020E00048E701235DE7002360E794F88B100120A7
:1020F000FFF7CCFA00287FF45FAFFFF77FFC002FDB
:102100003FF460AF9DF8081001A8FFF70FFC59E7F6
:102110009DF8081001A8FFF709FC52E7B4F8073052
:102120000133A4F8073077E7A41D0020CC1D002060
:10213000064B10B593F8442002F0FF0422B91C7638
:1021400009F0B4F9204610BD0C24FBE77C1D0020EB
:10215000094B0A4A10B51A60FFF7EAFF20B14FF4A5
:10216000A4712720FEF780FB054C06F0E9FEA06570
:1021700006F0EAFE206610BD502A0020E023000091
:102180007C1D00202DE9F341924C089FCDE9000110
:1021900094F8441001F0FF0511B90AB103B127B951
:1021A0004FF408712720FEF75FFBDDE9000104F121
:1021B000280C63639DF82430626284F88A302764B7
:1021C00084F8385084F88B5084F83E5084F8885056
:1021D0006584A58784F8395084F83A5084F8805093
:1021E00084F830508CE8030019F0C0FA6566E566A3
:1021F000A4F87050A5642565A4F85450E56A0CF065
:1022000081F90CF0A7FF95F97C0005F180070CF02F
:10221000E1F9AE6A286A0CF0E3F930460CF03EFBB7
:1022200095F8A4000CF0E6F9AB8E4E2B02D9EB8E9C
:102230004E2B01D80CF08EF894F82860002E40F058
:1022400089801CF0D2FD95F87420634B4FF47A71AD
:1022500053F8223003F5FA73B3FBF1F34633191840
:1022600030460CF03DFA5D4B18680CF01DFB6B69B5
:10227000E26AC4F88430AB6992F87460A36792F89C
:102280008D30A3F12A01012903D992F88E102A2951
:102290006BD194F82830002B64D192F83A12304672
:1022A00016F017FB064605F13C08314640461BF088
:1022B000E3FF31461BF030F8B5F8483095F875105B
:1022C000834228BF0346404684F87F301BF082FFDC
:1022D00095F8751095F893800429B5F8506008BFFB
:1022E00003211BF019F8B8F1000F01D1043080B2BE
:1022F000864228BF0646F6B284F8896007F0C0FE21
:1023000028B107F0C3FE864238BF0646F6B294F8FD
:10231000283084F85C60002B4CD195F892301BB1CA
:1023200039462846FFF736FB0120FFF767FB0023FD
:1023300023606360A360B5F8863063802B882380B8
:1023400095F8A4302371AB6F0BB101221A6002B073
:10235000BDE8F0811CF049FD95F8752000F165019C
:1023600001207EE792F8CA1299E7253B012B10D88D
:10237000282910D094F82830C3B192F836315A0782
:1023800012D413F001018AD1C3F340035B00D9B228
:1023900085E728290AD194F828303BB192F83631E4
:1023A00092F86D201340EAE7042178E7032E08BF76
:1023B000042678E795F893301BB139462846FFF795
:1023C0001DFA0120FFF7D4F9E36AD3F8E0010CF01D
:1023D000B3FAACE77C1D002074110400502A0020E1
:1023E00001190000491D0000651800005D1700007C
:1023F0000D4B0321186830B50D4690F8A52090F8D4
:102400004B400132B2FBF5F303EB4303D31ADAB2CC
:1024100044FA03F3DB0703D4013911F0FF01F0D1D3
:1024200080F8A52030BD00BF081E0020014B1868B1
:1024300016F01CBB081E002008B50BF02BFB014B4F
:10244000187008BD30110020064B10B41C68827C47
:10245000836804F1420194F841005DF8044B1AF0DE
:10246000BBBE00BF081E00202DE9F04105461746FF
:102470001E460C4619B1AB6853BB01201FE0DFF8C4
:102480006080D8F8000000F15B0390F85A2000F15A
:10249000780190F87E001AF09FFED8F804305A793F
:1024A000D8F80030082A04D093F84E40A21A5442BB
:1024B000544193F85630012BDDD023B1002000F0B9
:1024C0000100BDE8F0810028D5D1002CD3D1F5E77B
:1024D000002FD2D1002EF1D02846FFF7B5FFEEE74E
:1024E000081E0020024B18686C3002F0F1B900BFE2
:1024F000081E002038B50F4CFFF7F4FF656802F0A6
:10250000A1F963682860186820B940F2F5413220CB
:10251000FEF7AAF916F0A1FC10B940F2F741F6E770
:102520000CF0D8F900200CF039FA636804221A7113
:1025300038BD00BF081E002038B5194D04466B6831
:102540001B79022B04D940F608113220FEF78CF9D2
:102550002B68027C83F8A4201A44C168996692F81B
:102560007C2183F878214268C3F88820037A022B03
:102570000ED00BF0C7FF0CF03DFA0BF03FFB094803
:102580000CF092F908480CF089F908480CF028F88A
:10259000637C23B12B685B6E0BB101221A6038BDDE
:1025A000081E00206042000055555500D6BE898E99
:1025B00038B505460C4606F019FD420704D4A37849
:1025C00003F0E003402B30D006F010FD830704D465
:1025D000A37803F0E003202B27D0237803F03F03F8
:1025E000242B22D80BF0CCFE94F90030A278002BDB
:1025F000637802F01F02B4BF4FF496711E2143EAC4
:1026000002234B431A1AB2F5877F0ED398420CD897
:10261000074B294618682388A0F87931A37880F8F9
:102620007B31BDE8384016F0FEBE002038BD00BF4B
:10263000081E002008B5074B93F900207F2A04D11B
:1026400040F29B313220FEF70FF902707F221A70A0
:1026500008BD00BF3011002010B504788EB004F022
:102660000F0404A9224616F037FCFFF7E5FE042C00
:1026700033D11B4C059A2368107893F87810884260
:102680002BD1507893F87910884226D1907893F81E
:102690007A10884221D1D07893F87B1088421CD1DF
:1026A000107993F87C10884217D1517993F87D20E6
:1026B000914212D19DF8212093F87E309A420CD19C
:1026C0000DF10F00FFF7B6FF9DF90F3004A900933D
:1026D000237B227A606816F0D2FB03200EB010BD77
:1026E000081E00202DE9F04387B0194C06460F461E
:1026F0000DF11700FFF79EFF65682B79032B20D0A3
:102700002B79062B14BF4FF001094FF00309236802
:1027100003F142080BF02EFE9DF917303A46CDF832
:102720000C9031460293237ACDE9000343462846B4
:1027300002F054F940B1606807B0BDE8F04302F020
:10274000E9B84FF00009E2E707B0BDE8F08300BF49
:10275000081E00202DE9F043304D87B004460F4697
:102760006E68B3798BB3D5F8008098F8953033B99B
:102770000378002B14BF0223012388F895303379A6
:10278000062BDAB225D0072A0CBF4FF002094FF012
:1027900001090DF11700FFF74DFF0BF0EBFD9DF95F
:1027A0001730CDF80C903A46029321462B7ACDE9AA
:1027B000000308F14203304602F010F928B16378B3
:1027C000DB0609D4686802F0A5F8002007B0BDE870
:1027D000F0834FF00309DCE7A1690220FFF7E8FE70
:1027E000B8B100222B6883F8962062696AB15178EB
:1027F000C1F3031183F897101178527802F00F0299
:1028000041EA0222A3F89820E0E7FF2283F897200C
:10281000DCE7686802F0AEF8D7E700BF081E0020CA
:1028200010B504468AB0FFF707FE237803F00F03C4
:10283000072B02D001200AB010BD6946204616F0D1
:10284000DEFB684616F083FC9DF80030002BF1D1CA
:102850009DF80130DB07EDD50C4C019922689DF8FD
:10286000110002F1780392F87E201AF0B5FC0028DE
:10287000E0D020680121A0301AF0C4FAFF21684698
:10288000FFF768FF0130C0B2D5E700BF081E002087
:102890000D4A536810B51979022904D84FF4A6518E
:1028A0003220FDF7E1FF1979082902D941F2C1412F
:1028B000F6E71B79126903F180439268033BBDE898
:1028C000104052F823301847081E002010B5054C60
:1028D000637A2BB10CF08EF80BF090F90023637241
:1028E00010BD00BF081E002010B5054C23792BB188
:1028F0000CF080F80BF082F90023237110BD00BFAB
:102900005825002010B5094CFFF7E0FF012263684D
:102910001A7100232268A2F8793182F87B31FFF71F
:10292000E1FD2068BDE8104016F044BF081E0020FD
:1029300008B5044B586802F01DF8BDE8084016F0D1
:10294000A2B800BF081E0020062938B51D469DF814
:10295000104019D908291BD802B18CB143689BB922
:1029600012B94378DB0615D40B4B5B68186816F078
:1029700095FA00B134B92DB906F0C0FD00F001049C
:10298000204638BD0120F9E79DF814402C43F7E7B5
:102990000024F5E70124F3E7081E002038B50D1EDA
:1029A00004460CBF05200320104406F0BDFE094B71
:1029B000587270B15DB9033C012C8CBF5024552472
:1029C0000BF0F6F82046BDE838400CF007B840247C
:1029D000F6E738BD081E0020F8B53D4CFFF782FD34
:1029E000656801F02FFF63682860186820B940F21D
:1029F00052413220FDF738FF16F02FFA054610B984
:102A000040F25441F5E7236893F8A6306BB1236890
:102A10001A6D93F8A710C3F8102193F854200A43B5
:102A200083F85420002283F8A620206890F8A43070
:102A3000034493F87C71636880F878711A7952B115
:102A40001B79012B07D0002116F0EDFC18B9BDE869
:102A5000F840FFF757BF23681E4A93F8A530D05CB3
:102A60000BF0C8FD236893F8A420134493F87C610D
:102A7000022E2BD004D8012E05D040F60501B8E770
:102A8000F31E012BF9D801F0D7FE31460BF0D0FC34
:102A900028460BF01FFF314601200BF0B9FD7B1ECD
:102AA0002A46384659425941FFF778FF62680821A3
:102AB0000023517121722168D3801372E37281F86F
:102AC0009530A372237303231371F8BD0D20DCE747
:102AD000081E0020700E0400124A10B5536800B999
:102AE00031B9184601F046FFBDE81040FFF70ABFB4
:102AF0001979082904D841F290413220FDF7B4FE3B
:102B000019790C2902D941F29141F6E71B79126932
:102B100003F180435268093BBDE8104052F823306E
:102B2000184700BF081E002010B50B4C0521206877
:102B300016F079FC30B9606801F01CFFBDE8104068
:102B4000FFF7E0BE2368012093F878110BF06CFFCB
:102B500063680B221A7110BD081E0020054B1A680D
:102B600092F85420920703D05B68186801F094BE75
:102B700058697047081E002070B5304D06466B68D6
:102B80001A79032A0BD01A79042A08D0FFF7E6FF36
:102B9000044640B941F2C8313220FDF765FE18689D
:102BA00016F05BF9F4E72B6893F8543013B941F24F
:102BB000CE31F1E776B11AF02EFF30B16B681A7999
:102BC000022A0ED841F24E31E6E720461AF03EFFC7
:102BD0000028F3D16B681A79022A17D841F2AE3176
:102BE000DAE71A79082A02D941F24F31D4E71B7982
:102BF00020462A6903F180431269033B52F82330CF
:102C000098470C2812D941F2E131C5E71A79082A10
:102C100002D941F2AF31BFE71B792A6903F1804342
:102C20005269033B52F823309847EAE72B69DB6887
:102C3000BDE8704053F82030184700BF081E002040
:102C400038B5FFF78BFF044620B940F21C51322003
:102C5000FDF70AFE0B4DFF202B6893F878110BF05F
:102C6000E7FB20460BF036FE2B6893F87831033BE8
:102C7000012B94BF282000200BF090FE6B680722E8
:102C80001A7138BD081E002038B5134C0E20236879
:102C900093F878110BF0CCFBFFF760FF054620B9E5
:102CA00040F209513220FDF7DFFD0BF013FE2368DF
:102CB00093F87831033B012B94BF282000200BF0C0
:102CC0006DFE23682A46002193F87801FFF766FE1F
:102CD000636808221A7138BD081E002010B5074C21
:102CE000606801F017FEFFF7A7FB20680021A03005
:102CF0001AF088F8BDE81040FFF704BE081E002057
:102D000007292DE9F043064687B00F4690464568EF
:102D1000634C23D11DBB002A49D1D4E9001091F89E
:102D2000543013F0030218BF012213F00403827120
:102D300003D033785A1E53425341C37191F89430F3
:102D40004BB12368D3F8900050301BF0C5FF10B989
:102D5000636801221A7207B0BDE8F0833DB32946CB
:102D6000707C15F0C8FD072F814661D1637A63B18D
:102D700058B1B8F1000F52D065681AF071FA636863
:102D800068715B7923720123A372636858790828FC
:102D900055D17168707C1BF0EBFE62680546716866
:102DA0000532707C06F0B0FB6368002859D02368B8
:102DB00093F8540010F003000AD093F84C303946D1
:102DC000019530466268927900924246FFF7BCFD59
:102DD00062682368907193F8540010F0040009D0E1
:102DE00093F84D30394601953046D27900924246EB
:102DF000FFF7AAFD2B4B65681B68E8711BB14146C4
:102E000030469847287272686AB3717C236883F8E9
:102E10007E10116899679288A3F87C2023E02368CC
:102E200093F878110129A7D1284606F04FFC60726B
:102E3000637A002BA9D0B9F1000FA6D09CE704AAB1
:102E40000DF10F0106F02AFC20B940F6BA3132200C
:102E5000FDF70AFD04A99DF80F001BF089FE054649
:102E6000A5E7D88018726268137AB3B9D388003B9B
:102E700018BF0123B06800283FF46DAF072F7FF41F
:102E80006AAF517908293FF466AF002B3FF463AF76
:102E900006F03AFC0123E3725DE70123EAE700BF95
:102EA000081E0020582A00202DE9F84FDFF8C0A0A6
:102EB000914604468846DAF800201F468168807CE7
:102EC00015F019FD92F848609AF80930054686F029
:102ED0000106002B3AD092F854305B071DD592F8CA
:102EE0004D30D3B192F84EB0BBF1080F23D0584605
:102EF00006F0E8FA3043C6B245B39AF80B303BB35C
:102F00001AF0B8F9002304468AF80B3089F800401B
:102F100088F800503E70BDE8F88F636823B1DAF896
:102F2000043093F805B0DFE7DAF80430186815F0DC
:102F3000B5FF0028F3D1CDB19AF80A1031B9A068D5
:102F400006F0C4FB04468AF8090038B90024DDE71E
:102F5000A168584606F02EFC0446D7E71AF080F91F
:102F60000828F3D0DAF804305871CFE72C46CDE7C3
:102F7000081E00202DE9F043874D87B004462E68D7
:102F800096F85730002B47D06F68BB7923B9FA7990
:102F900012B93A7A002A3FD094F80080B8F1010FB4
:102FA00072D0B8F1020F00F0D380B8F1000F33D126
:102FB00096F8542091072FD00BB93B7A63B363780E
:102FC00013F0100FC3F300170CBF012208229A431D
:102FD00022D10022A3688DF814208DF81520002B33
:102FE00047D00DF1160305AA0DF115012046FFF794
:102FF0005BFF2B6893F841609DF8143083B920463D
:10300000FFF722FA70B92B6893F85530023B012B79
:1030100002D89DF8153083BB032007B0BDE8F083CC
:1030200046F002065FB30DF117004FF00008FFF7FE
:1030300001FBD5E9003903F142070BF09BF99DF93B
:1030400017303246CDF80C80214602932B7ACDE919
:1030500000033B46484601F0C1FC0028DCD0A169D2
:103060000120FFF7A5FA0028D6D02B6883F89680B8
:103070003BE0FF268DF81630D4E7FE26D2E7314636
:103080002046FFF72FFBC7E796F878216378022ADE
:103090003DD103F01903192BBED196F854305A07CD
:1030A00039D40DF11700FFF7C5FAD5E9003703F160
:1030B00042060BF05FF90023FF22214603939DF99E
:1030C000173002932B7ACDE900033346384601F0DE
:1030D00085FC0028A0D0A1690120FFF769FA00282B
:1030E0009AD02B68012283F896206269002A4ED07C
:1030F0005178C1F3031183F897101178527802F0D8
:103100000F0241EA0222A3F89820022085E703F08B
:103110001803182BC0E7616800232046B1FA81F13B
:103120001A464909FFF7A0F900283FF475AFA369D3
:103130002A689B781F2B04D892F84930002BB0D115
:103140006AE703F0E003402BABD192F84A30F5E791
:1031500096F854309B073FF45FAF637803F0180391
:10316000182B7FF459AF0DF11700FFF763FA0BF03E
:1031700001F90023FF22214603939DF917300293A2
:103180002B7ACDE9000306F14203384663E7FF22BC
:1031900083F89720B9E700BF081E0020014B58684C
:1031A00001F0E8BB081E00202DE9F04F044689B06D
:1031B000062900F2C580DFE811F06000E700070093
:1031C000C300C300C30026006E4D0BF09DFA2F68AC
:1031D00097F85430980714D06E68B3798BB10DF11D
:1031E0001F00FFF727FA9DF91F30022221460293A4
:1031F00030462B7A0193FF23009307F1420315F029
:103200002EFE03201FE05F4D6E68B379002B00F0A7
:1032100097802F6897F85420910717D50DF11F005C
:10322000FFF708FA9DF91F30304606220293214627
:103230002B7A0193FF23009307F1420315F00FFE51
:10324000002309202B7309B0BDE8F08FD30777D591
:10325000570701D50BF058FA0DF11F00FFF7EAF9F7
:103260009DF91F202B6802922A7A42330192FF2295
:103270000092062221466868C1E7424D2B6893F808
:103280005420560737D56968CA79002A33D0426876
:1032900093F85B001678864255D1567893F85C0017
:1032A000864250D1967893F85D0086424BD1D6780D
:1032B00093F85E00864246D1167993F85F00864205
:1032C00041D1507993F8602090423CD1627C93F8D0
:1032D0005A00101A4242424193F8560001284ED03B
:1032E000002A4CD193F84E30082B02D04A799A42EA
:1032F00045D00BF009FA6E68B379002B3DD02F68EA
:1033000097F85420930720D50DF11F00FFF792F98D
:103310009DF91F3030460022029321462B7A0193FB
:10332000FF23009307F1420315F099FD01230920C3
:103330002B736B68DA79002A85D19B79002B82D1B7
:103340000BF0E2F95DE70022C6E7D60715D5500776
:1033500001D50BF0D9F90DF11F00FFF76BF99DF9BD
:103360001F202B68214602922A7A42330192FF22C3
:1033700000920022686815F072FD0320D9E70A2048
:10338000D7E700BF081E0020644D81682A68807C52
:1033900015F0B1FA92F854306E68074692F84890EA
:1033A000590796F806A096F807B089F0010940F190
:1033B0008E8092F84D30002B00F0898092F84E609C
:1033C000082E00F08680304606F07CF849EA0000BE
:1033D0005FFA80F9002F7ED03046A16806F0EAF946
:1033E00006462B6893F8542093F84180520749D53C
:1033F000626893F85B10107888426ED1507893F829
:103400005C10884269D1907893F85D10884264D14D
:10341000D07893F85E1088425FD1107993F85F10EE
:1034200088425AD1517993F86020914255D1627CFB
:1034300093F85A10501A4242424169684979082962
:103440004DD093F84E30591A4B424B41002E48D183
:10345000B9F1000F47D02046CDE90423FEF7F4FF71
:10346000DDE90423BBF1000F0AD0296891F856105A
:1034700001294ED021B9002A4BD108B1002B4AD1E5
:103480000BF042F92B6893F854309B073FF4B9AE28
:103490000BF03AF9BAF1000F3FF4B3AE2046FEF755
:1034A000D3FFD5F8009000B9FEB10DF11F0048EA36
:1034B0004608FFF7BFF89DF91F3002932B7A01935E
:1034C0005FFA88F30093012209F14203D2E676798C
:1034D00076E7002685E73E4683E70022ADE7002336
:1034E000B4E70120BEE73046BCE799F85530023B0F
:1034F000012B3FF686AE002F3FF483AE0DF11F0087
:10350000FFF798F89DF91F3002932B7A0193FE2361
:10351000D8E70028B4D00A2095E600BF081E002096
:1035200030B58BB00546FEF787FF114B1B6893F84B
:10353000543013F0060F04D00122962100201CF015
:10354000A3FA2C786946284604F00F04224615F0A9
:10355000C3FC002221466846FFF7D2FB214668469D
:10356000FFF722FE0446FFF7B1F920460BB030BD4D
:10357000081E002030B505468BB0FEF75DFF2C78A5
:1035800028466946294D04F00F0415F038FD2B68D4
:10359000072C16D193F87811684615F039FD0022F2
:1035A00021466846FFF7ACFB2B6893F87831022B75
:1035B00032D017D8012B1AD041F249213220FDF721
:1035C00053F993F8542012F0060FE8D093F8A42092
:1035D000134493F87C21012AE1D1962100201CF0AC
:1035E00053FADCE7033B012BE6D8072C19E0062C45
:1035F00002D00BD8022C0BD821466846FFF7D4FD29
:103600000446FFF763F920460BB030BD072C09D004
:103610000BF07AF80324F4E7072CFBD19DF8003077
:10362000012BF7D16846FFF7A5FCE9E7081E00204B
:1036300038B5154D2C6894F84830F3B16FF000435D
:10364000D4E920129A4208BFB1F1FF3F15D01CF017
:1036500079FBD4E92023904299410ED32B6893F84B
:1036600048305BB92D6806F013F804461CF06AFB7D
:10367000064BE4FB0301C5E9200138BD012006F03B
:1036800065F80028F9D0EDE7081E002040420F0041
:1036900010B50446FEF750FF237A032B04D140F601
:1036A0003A113220FDF7E0F80BB9FEF7A1FE064B08
:1036B0001B6893F958000AF08DFFFFF78DF9BDE8FC
:1036C0001040FFF7B5BF00BF081E002070B51E4DAB
:1036D00006462A6892F87B3192F879015F2B4FEA0F
:1036E000531100F03F0097BF184B00245B18DC78A3
:1036F0000AF080FF2B6893F958000AF06BFFFEB1C7
:103700002B682246996E01200AF0EAFF2B682146B9
:1037100093F89630022B14BFFF2040200AF088FE59
:10372000FFF71CFA2B68064693F8951019B9024664
:103730002046FFF733F93046BDE870400BF0CAB8B9
:1037400022468221DFE700BF081E0020700E040021
:10375000F7B52C4C0746226892F87B315F2B4FEA75
:10376000531197BF284B00255B18DD78936E13B17A
:103770000120FFF7ABFF2368D3F888000BF0DCF8DB
:10378000236893F85420910703D593F896100229E3
:1037900005D052070ED593F89620012A0AD1042DA0
:1037A00026D193F85930012B0CBF032104210020AE
:1037B0000BF03AF9D4E9006318689A36D7B915F0D6
:1037C0006DFB63680746186815F06EFB21680246BA
:1037D000304691F8963091F878110091394615F0FD
:1037E0006AFC236883F878510023A37203B0F0BD0C
:1037F0002946DCE715F064FB0146304615F050FC25
:10380000EFE700BF081E0020700E040008B501207D
:10381000FFF79EFF024B06225B681A7108BD00BFCE
:10382000081E002008B50020FFF792FF024B05227A
:103830005B681A7108BD00BF081E002010B5044661
:10384000FEF77AFE237A032B0AD1194B1B68986E78
:1038500020B14FF415613220FDF706F8FFF736FF6F
:10386000237A012B06D003D9023B012B12D910BDBC
:10387000FEF7BEFD0E4C236893F958000AF0AAFE2D
:103880002368002283F89520FFF7A6F8BDE81040D2
:10389000FFF7CEBE064B1B6893F895301BB9BDE809
:1038A0001040FFF7BFBFBDE81040FFF7AFBF00BF3C
:1038B000081E002008B5044B586801F02BF8FEF7ED
:1038C000BBFD012008BD00BF081E002008B5FEF7A3
:1038D000B3FD054B00211868A03019F093FABDE83C
:1038E0000840FFF70FB800BF081E00202DE9F34184
:1038F0004C4D00230E4607462A6841F27070116D48
:1039000053720B885381CB69A3F57A74844295BFB7
:103910004FF47A7040F2E240B3FBF0F3B3FBF0F304
:1039200098BF03F550639BB213848B8C5384CB8C6C
:1039300093844FF47F43D3844FF6FF73138517B3FB
:103940000121304619F0DCFF01463078C0092C68AF
:1039500094F8483004F11402FBB114F0CCFFE0B14C
:103960000B6863618B88287A938004F10E02082823
:103970004AD004F10D0105F091FE88B941F21741DA
:103980003220FCF771FF6946686919F00BFF6B691B
:1039900069461878C0F38010D9E700236361E2E735
:1039A0002C68637B04F11A0843F00203637347B386
:1039B0000021304619F0A4FF0368C4F81A30838848
:1039C000A8F804302B6893F95810186D05F064FFBF
:1039D000286815491AF042FB28681449036D2A30FB
:1039E0001A88A0F8092093F89630C3721AF03FFBAA
:1039F0000221286801F0B2FAFEF774FD02B0BDE8BA
:103A0000F08104F17800D7E794F87E306373A36FF8
:103A1000C4F80E30B4F87C3093800023C4F81A3018
:103A2000E383CFE7081E0020538901000F890100BE
:103A300008B5FEF74BFF044B00205969FFF756FF0E
:103A4000BDE80840FEF7F2BC081E00202DE9F04753
:103A500005468AB0FEF7F0FC2B7803F00F03082B25
:103A600005D04FF0010840460AB0BDE8F08769462E
:103A7000284615F062FA9DF80080B8F1000FF0D1E9
:103A80009DF8013003F00303032BEAD12D4C266887
:103A900096F84D30002B3BD096F84E70637A002B91
:103AA00039D14FF0000906F1780396F87E2001998C
:103AB0009DF8110019F090FBB9F1000F01D1002819
:103AC000CFD0236893F8419003F1420A96F848302A
:103AD00023B1384605F0A8FE024638BB52469DF891
:103AE00012A00299504614F006FF134606464A46B5
:103AF000504619F071FBE0B120680121A03019F0A7
:103B000081F9FEF7E3FE29460120FFF7EFFEAAE761
:103B100063685F79C2E719F0A3FB0828C1D0C31B13
:103B20002072D3F1000949EB0309BCE74FF001090A
:103B3000D5E7002E95D00299384605F03BFE0028C7
:103B4000DAD18EE7081E00202DE9F8436D4F0023DF
:103B5000064689467869D7F80080037043700AF0FA
:103B6000D5FE054630B90025032006F0C3F92846E6
:103B7000BDE8F8837C69032E237834D123F00F034A
:103B800043F0030323700C236370D8F8783078690E
:103B9000C0F80930B8F87C30A0F80D3098F87E10E5
:103BA00019F014FE002178691BF07AFF3B6893F846
:103BB000482003F1420993F84180002A7FD14C4606
:103BC000236841467869C0F80330A388A0F807301D
:103BD00019F0EFFD4C4BD3F80C32002B00F0848031
:103BE0000AF092FDBFE723F02F032222396843EA4F
:103BF0004913627043F0050323700B6D1B6AC4F810
:103C00000F300A6D936A180AE3741B0C20756375F4
:103C100092F87E00138E00284BD04FF0640CB3FB5B
:103C2000FCF3A375D36A002846D06420B3FBF0F3FD
:103C3000E375C3F3072341F270702376D369A3F5CC
:103C40007A7C844595BF4FF47A7040F2E240B3FB32
:103C5000F0F3B3FBF0F398BF03F550639BB26376C8
:103C60001B0AA376938CE3761B0A2377D38C6377A6
:103C70001B0AA377D2F89730C4F81F3092F89B3014
:103C800094F8242084F823300B6D22F01F0293F85F
:103C9000A23003F01F03134384F8243005F0CCF95D
:103CA00094F8243003F01F0343EA401384F82430CF
:103CB0006BE740F2E24CB2E740F2E240B6E793F83D
:103CC000542052070DD593F84D2052B193F84E0071
:103CD00005F0AAFD044600283FF471AF4FF001083B
:103CE0006EE77B685879F3E7052E7FF440AF3B68B9
:103CF00021681A6DC2F80A10A188D1811B6D83F862
:103D0000098034E7081E002000A0085010B50021EB
:103D10000320FFF719FF18B9BDE81040FEF7F2BD08
:103D2000074C0321206815F07EFB0028F4D0012108
:103D300008460AF079FE636809221A7110BD00BFB7
:103D4000081E002038B5184D6B68186815F085F806
:103D5000044620B940F261513220FCF785FD6B68C2
:103D60000A22002128681A7101F0F8F82B68052052
:103D70001A6D237892F8964004EA531404F0010473
:103D80002146FFF7E1FE18B9BDE83840FEF7BABD9D
:103D90000421286815F047FB0028F5D02B681B6D1F
:103DA00083F8964038BD00BF081E002010B5114CA6
:103DB0000C220121636820681A7101F0CFF80021FC
:103DC0000520FFF7C1FE18B9BDE81040FEF79ABD07
:103DD0000621206815F027FB0028F5D02368012074
:103DE00093F878110AF020FE236801221B6D83F8F6
:103DF000962010BD081E00202DE9F041044690B029
:103E00000D46FEF719FB237803F00F03072B06D0AE
:103E10000124FFF7C3F9204610B0BDE8F081204629
:103E2000A14C06A915F0EBF8206806A99A3015F008
:103E300060F923689DF8181093F89620914248D1B4
:103E4000032D03D193F89720FF2A13D09DF8192052
:103E500012073ED50B9993F897004A78B0EB121FE2
:103E600037D1097802F00F02B3F8983041EA022204
:103E70009A422ED12A46072106A8FEF741FF636821
:103E8000DA880AB91B7A23B30023089E8DF8143010
:103E90008DF815308DF81630F6B10DF1160305AA20
:103EA0000DF1150106A8FEF7FFFF23689DF81460C9
:103EB00093F8415045EA4605EDB29DF818209DF86B
:103EC0001580012A9DF8163008D0022A7AD0002ADF
:103ED0004BD0FFF763F914E0FF25EEE79DF81900DA
:103EE000226800F0090792F89A10092F02D041B118
:103EF000070706D592F85420500704D463689B79CD
:103F00009BB9012459E06268D279002AF6D0324682
:103F100006A8FEF7A9FA0028F0D02068A03018F013
:103F200093FF0028EAD00C2447E0236893F854302C
:103F30009A07E6D09DF819309B0700F1BC80FF215D
:103F400006A8FEF7CFFBDCE706A8FEF77DFA0028FF
:103F500040F0B480236893F85530023B012BD0D851
:103F6000B8F1000FCDD0FE21EAE7236893F8543072
:103F70009F07C6D09DF81930980721D56EB906A8BD
:103F8000FEF762FA48B9236893F85530023B012BDB
:103F9000B7D8B8F1000FB4D0FE2563681B7A33B1EF
:103FA000424B1B681BB10D9808B10F9998472946E1
:103FB00006A8FEF7CFFB441CE4B2FEF787FC2AE715
:103FC000FF25EAE7226892F85420910799D06168AA
:103FD0008979002995D09DF8197007F00901092900
:103FE0008FD1920707F0020762D5002F38D026B391
:103FF0000DF11700FEF71EFB00210320FFF7A4FDC3
:104000000646D4E9003803F142070AF0B3F9012368
:104010002A4606A903939DF917300293237ACDE926
:1040200000033B46404600F0D9FC76B900283FF437
:1040300068AF606800F06EFC63E7002B8AD006A8CA
:10404000FEF702FA0028D3D184E700283FF459AFE5
:104050002068A03018F0F8FE0028EAD00B24ACE766
:104060000DF11700FEF7E6FA39460320FFF76CFD65
:104070000646D4E9003803F142070AF07BF9012330
:104080002A4606A903939DF917300293237ACDE9B6
:1040900000033B46404600F0A1FC0EB10028D7D1FA
:1040A000606800F067FC2CE7081E0020542A0020FE
:1040B000002F3FF444AF002E3FF446AF29463FE7C0
:1040C000036D10B5044623B940F261313220FCF78C
:1040D000CBFB0222074942721B884381FF2380F8F1
:1040E00027304FF6FF73038519F0B8FF00232365CF
:1040F00010BD00BF53890100F8B5194F064604F002
:104100001FFF012178610020FDF70EF8054620B958
:1041100040F691013220FCF7A7FB4FF4C07200215A
:104120001CF0D2F801210846FCF7FEFF044620B13E
:104130004FF4C07200211CF0C7F83B6913B940F678
:104140009B01E7E7304614F0E1FC284615F0D9F969
:1041500024B12046BDE8F84015F0D3B9F8BD00BF42
:10416000081E0020014B024A1A617047081E0020F9
:1041700050430000014B024A1A617047081E00209C
:1041800068430000036810B523B940F67F11322060
:10419000FCF76AFB044A13606C3353601369BDE893
:1041A00010401B68184700BF081E002008B5044BCC
:1041B000586800F0DFFBBDE80840FEF7A3BB00BF76
:1041C000081E002038B5044690F8400000F0FD00BD
:1041D00004F14201003818BF012084F8410005F0C5
:1041E0000BF894F84030023BDBB2012B94BF012363
:1041F000002384F8483015D805F04AFA05461BF02C
:10420000A1FD094BE5FB030194F84830C4E9200106
:1042100043B1002005F09AFA20B940F62921322056
:10422000FCF722FB38BD00BF40420F000149363089
:1042300019F017BF3189010010B5084C02226368DC
:1042400020681A7100F058FD38B9206814F0BEFDDE
:104250002068BDE8104015F0ADBA10BD081E002062
:1042600091280000792B0000D92A0000398B010029
:10427000F5240000313A0000F5240000313A000036
:10428000412C0000892C0000A78A0100958A0100BA
:10429000A78A0100958A0100878A01003129000060
:1042A000DD2C0000CD3800002D2400000529000081
:1042B00025890100D92900002589010025890100EF
:1042C0002589010025890100258901000D3D000097
:1042D000453D000025890100258901002D240000AD
:1042E0000529000039420000D92900002589010074
:1042F000253800000D3800002589010025890100BE
:104300000D3D0000453D0000292B0000AD3D0000A3
:10431000213500005926000075350000592600009F
:10432000F18A0100EB8A0100212800004D3A0000CB
:10433000D98A0100CB8A0100D98A0100CB8A010009
:10434000BD8A0100BD8A0100B53800007D8A0100E8
:10435000913600007042000088420000A842000030
:1043600010430000304300003D3800007842000058
:1043700090420000DC420000184300003843000077
:10438000013808B5C0B20A4B41B1032801D8185C06
:1043900008BD4FF4E9713320FCF766FA032802D810
:1043A00003441879F4E740F211310620F4E700BF26
:1043B000760E040008B514F03DFA054AD2E84F3FE6
:1043C0000133DBB2C2E8413F0029F7D108BD00BF8D
:1043D000201E0020024BA0F108015868FFF7EABF39
:1043E000201E00202DE9F84F1E463C4B0D469346FB
:1043F00000211A7804689DF828709DF82C809DF99A
:1044000030909DF834A0016032B9A4F108015868D9
:10441000BDE8F84FFFF7CEBF1A2204F109001BF0E8
:1044200053FF0123A372BBF1060F4FD8DFE80BF057
:104430000433394E434E3D00E37A23F0130343F037
:104440001303E372012304F10E024146284623754B
:1044500047F6FF7384F81890E38204F10D0314F01B
:10446000D0FCE37A5B0736D5BA1E04F11C03012A9F
:104470008BBFAA6832681168E2618ABFE161B288C5
:1044800092889A80E7760023237215492046BDE87A
:10449000F84F19F0E6BDE37A23F0150343F0150356
:1044A000CFE7E37A43F01003CBE7E37A23F012037C
:1044B00043F01203C5E7E27A4AF01A0A22F01B021F
:1044C0000AF01B0A42EA0A02E272BBE740F24441E8
:1044D0003320FCF7C9F9FF23E376D4E7201E002040
:1044E000E54400002DE9F04F05468DB00C46002054
:1044F0000121FCF755FE064620B94FF4F071332038
:10450000FCF7B2F9A83014F081FF18B196F85430D6
:10451000042B2ED1304614F0EEFA50BBB64C04F109
:10452000080604F10C07AB6A93B92846FFF752FF5F
:104530004FF40073ADF804309DF80430002063F3AD
:1045400007009DF8053063F30F200DB0BDE8F08F34
:10455000A96A0B68B142AB624FF000030B704B705D
:104560008B70CB70DFD0B942DDD06068FFF722FFDF
:10457000D9E7AF6A37B3A14B9F4226D0043B9F4295
:1045800023D007F13B0A4FF0000804F0E7FC814616
:10459000B8F1000F40F0008102A9504614F02FFD41
:1045A000B9F1000F16D004F10D00EE7A16F01006E6
:1045B00013D09DF818600599324613F07DF94FF03D
:1045C000010828E005F1330ADDE74FF001084FF05C
:1045D000000ADAE704F11C00E7E7002FEFD09DF8AE
:1045E0000830022BEBD0014695F83230E5225046D8
:1045F00019F095F995F8323006460344504685F88F
:10460000323019F084F995F83280A8EB0000D0F12F
:10461000000848EB0008B9F1000F00F0C180EB7A08
:10462000D90604D45B216AE7C8460026F7E713F0F1
:10463000040FAA7A95F80DE004F1060005F10E0CBE
:1046400030D0E97EFE292DD11123E27084F805E0F7
:10465000237013010233637001232371D5F80E30E8
:10466000C4F80630BCF8043083802173EB69C4F8C9
:104670000D302B8CA4F811302B7EE3745E4E06F1C6
:10468000080A57453BD12379022205F1280062F33D
:104690004613237114F0D1FB02272846FFF79AFE38
:1046A00004263FE006F10A030321E2705343217020
:1046B000023384F805E06370D5F80E30C4F8063094
:1046C000BCF804308380267326442B7E7373EA7A09
:1046D00012F0080002D004232371CFE702F0030395
:1046E000032B01D12071C9E7520701D50123F3E75C
:1046F000022BF1D00BB92171C0E7A221FFE606F130
:104700000C094F4515D105F1280014F096FB6A7D80
:104710006AB92379042662F34613237102272846D7
:10472000FFF758FE8DF804608DF8057004E7002649
:10473000F4E747B3B8F1000F20D005F12808404650
:1047400014F07BFB39467068FFF734FEAB6A002239
:10475000534585F8322096D04B4505D12379404604
:1047600062F34613237195E79DF80830022B05D1BB
:10477000237923F068030127237191E7237901222C
:1047800062F34613F7E7EE7A16F01006CAD02379E3
:1047900067F3461323717FE700287FF445AF064691
:1047A000042305F12301237006F11803AA7A534369
:1047B000E270221D0233637005F10B0353F8040B02
:1047C0008B4242F8040BF9D195F814A095F815B076
:1047D00004F002FCC1F3402950464946FFF7D0FDE2
:1047E0006073BBF1000F04D049465846FFF7C8FD7F
:1047F000A073E67642E700BF201E00202C1E00209A
:10480000343270B5054692B20C461E4613F0DAFFFC
:1048100025B1034A556014745674147070BD00BFFE
:10482000201E002010B5034C606813F0EDFF237CC0
:10483000237010BD201E0020014B587C704700BF24
:10484000201E002038B5134D686813F0E3FF0446BE
:1048500020B940F255113320FCF706F8D5E84F3F58
:10486000013BDBB2C5E8413F0029F7D104F1080361
:10487000342218461BF028FD47F6FF720121E4623E
:10488000E283FF22627584F82320E27C61F3461202
:10489000E27438BD201E002038B5436A044693B93F
:1048A0000A4D686813F0B6FF606220B94FF4B77123
:1048B0003320FBF7D9FFD5E84F3F013BDBB2C5E81A
:1048C000423F002AF7D1606A3B3038BD201E0020ED
:1048D000036810B504468BB19A6A22B140F28B117D
:1048E0003320FBF7C1FF596A41B101F1080083424F
:1048F000074B08BF22605868FFF75CFD216831B1A3
:10490000034B08395868FFF755FD0023236010BD9D
:10491000201E002038B5046805469CB11349204686
:1049200019F0A8FB124B00221A735A739A73DA73A8
:10493000EFF3108272B6A16A0C3399B9A362E362F5
:1049400002B962B62C68616A49B101F108039C4260
:1049500003D0074B5868FFF72DFD00236362002347
:104960002B6038BDE16A0B60E9E700BFE544000059
:10497000201E002070B50668044656B3716A154DB6
:1049800041B101F108039E4202D06868FFF712FDB1
:104990000023736221684E7DB6B100232B726B72C7
:1049A000AB72EB72EFF3108272B6886A0A4B40B9B1
:1049B0008B62CB6202B962B62046BDE87040FFF759
:1049C000A9BFC86A0360F4E708396868FFF7F2FC1A
:1049D000266070BD201E0020281E00202DE9F04713
:1049E0000468914606460D469A469DF820209DF89B
:1049F0002C8024B940F239313320FBF735FF664F64
:104A00003B78B3B9B8F1020F0DD009D9B8F1030F53
:104A10000CD03368002B00F08A8040F25631EBE76F
:104A2000FFF756FFF5E7FFF775FFF2E7FFF7A2FF85
:104A3000EFE7636A0BB94021DEE783F81180CB68AA
:104A40007BB1097C238E0B4440F272618B4207DDFF
:104A5000FFF790FF3368002B69D040F27331CBE74A
:104A600023860123A3729DF928302376B8F1000F25
:104A700060D122756B691BB15B78C3F30313A37517
:104A8000EB6913B15B88A4F819302A78511E4B42A8
:104A90004B41E17A63F30001C1F34003022A08BFEE
:104AA00043F0010363F34101C1F34003002A14BF43
:104AB000002303F0010363F3C301AB68E1721BB190
:104AC000CBB243F00403E3722B6A13B193F90030C5
:104AD000E3756B6843B104F10D0304F10E029DF818
:104AE0002410284614F08DF9AB688BB1A9F10201AE
:104AF00004F11C02012995BFDAF800301968E3615E
:104B0000E16194BFBAF804309B88938084F81B90CD
:104B1000A969B8F1000F0FD179B38B784A7803F007
:104B20001F0352EA032228D13046FFF7D1FE0020AE
:104B3000BDE8F08762759DE70022636A1A705A70BB
:104B40009A70DA70A26AEAB9A362E36289B14A781C
:104B5000897801F01F0152EA01220AD1A16A3A7252
:104B60007A72BA72FA720D4A79B9A2620023E262CD
:104B700033600B49204619F07DFA636A3BB94FF464
:104B8000D77139E7E26A1360DFE71A60EEE70023C6
:104B900001206362CCE700BF201E0020281E0020F9
:104BA000E544000010B504460246064900F58C7045
:104BB0001BF025FA224604F5A4700249BDE8104016
:104BC0001BF01DBA2F95010010B590F854308A1EC5
:104BD000012BD2B205D1022A2CD8184B33F812007F
:104BE00010BD03291DD002291FD14FF4E17000240C
:104BF000124B03EB4403DB8803390344012903F11F
:104C000096038CBF00202820022A4FEA400094BF60
:104C10000B4940F64802184498BF31F8122010445E
:104C2000DEE740F264600124E2E740F2E6204FF460
:104C3000B073E1E740F64800D2E700BF7E0E040003
:104C40007E0E0400014B1870704700BF3111002028
:104C50007FB590F8143103F0FF0223B140F2A52193
:104C60002120FBF701FE0C78039214F0010318BF1A
:104C70008D68CDE9012218BF0195A60707D504ADBF
:104C8000CE6805EB83050133DBB245F80C6C650794
:104C90002BD504AD0E6905EB83050133DBB245F876
:104CA0000C6C013B134D80F845314B68C0F8C8309F
:104CB000C0F8F83040F27123A0F8FC30002315F85A
:104CC000011B0C420BD004A900EB820601EB820110
:104CD000013251F80C1CD2B22B39C6F8CC1001337A
:104CE000DBB2032BEBD104B070BD002BD9D140F265
:104CF000BE21B5E78A0E040090F87B315F2B4FEAA6
:104D000053112DE9F04F044689B000F2A9808F4A73
:104D10000A4492F80F80B8F1040F04D100224FF03A
:104D2000030880F8702194F9792103F01F0394F8A7
:104D30007A91002A49EA032994F87931B4BF4FF4F3
:104D400096721E22DB0902FB09F90CBF4FF01E0B05
:104D50004FF4967B09F014FBA9EB000609F052FB17
:104D600094F87931074606EB0B0A13F0400F4F44D5
:104D70000CBF4FF4FA75322518F075F8744B0544E2
:104D8000B6F5837F0AFB05F505F5742505F23F2589
:104D9000B5FBF3F56FD394F8153103F0FF02002B48
:104DA00061D14046019209F085FF6A4B4FF47A7A4F
:104DB00053F8289009F52243B133B3FBFAF6BA361B
:104DC0005E4406EB45060644404609F073FF00903A
:104DD000404609F077FF414683462046FFF7F4FE40
:104DE00000F18C08009BA9EB0B09B044019AA8EBD9
:104DF000030804238DF808208DF81130D4E92C32F3
:104E0000B9FBFAF9933BA8EB090842F1FF32DB1931
:104E1000CDF80C8042F100025B1B62F10002CDE98B
:104E200006324D4B1878FE2803D094F854305A07B8
:104E300001D41BF04DF88DF8100002A904F58C7018
:104E4000C4F8D880C4F84061DDE90623C4E92E2304
:104E500012F062F838B940F2EE612120FBF704FD50
:104E60004FF000085FE709F0ABFC12F041F80120B9
:104E700009B0BDE8F08F40464FF47A7A09F01AFF86
:104E8000344B53F8289009F2E736B6FBFAF6203691
:104E90005E443E442E440644404609F00BFF009019
:104EA000404609F00FFF834641462046FFF78CFE3F
:104EB000A9EB0B0900F18C03009AD4F8D880334495
:104EC000B9FBFAF99B1AA3EB090AD0452BD2224B66
:104ED00093F80090B9F1FE0F03D094F854305B07BB
:104EE00002D41AF0F5FF814648461AF08EFFAAEB6D
:104EF00008034946192B38BF1923834228BF0346AC
:104F0000184698461AF0ABFF0028B1D01AF01EFFE1
:104F1000D4F8D83008EB0300C4F8D8008238C4F8BD
:104F2000E0001AF011FF94F84431103F02A80294F7
:104F30008DF8183002237F1B03968DF81030002364
:104F400005978DF81930FFF71DF990E77E0E0400E4
:104F500040420F00601104003111002001292DE9A9
:104F6000F347064605D9022900F0A08040F6420129
:104F700050E001F00104D0E92CA709F01FFA96F8DF
:104F8000788181462046414618F0FCF905464046A6
:104F900009F098FE0246002C3FD0A8F10203DBB2D4
:104FA000022B3AD8574901EB43035B8A15EB0905FD
:104FB0002CBF0121002115EB0A0547EB01075249DF
:104FC00051F8280000F2E73010444FF47A72B0FB39
:104FD000F2F02D1A67F10007ED1847F1000719F0FC
:104FE00004FF4630D6F810812C1AD8F81C9067F1CF
:104FF000000506F091F906F1E803834210D04A4615
:10500000CDE90045D8E9740119F0FDFE81451DD2B6
:1050100040F261312120FBF727FC4FF4FC73C5E718
:1050200098F87D0090B1D6E93A7A06F0CDF930B91A
:10503000B8F9F431A8F8F401DF194AEBE37A4A46EB
:1050400038465146CDE9004519F0DDFE2F4B1A6870
:10505000D6F81031824293F87E100BD9DE693218EF
:10506000DE6279B941F66A018842198616D340F2A8
:10507000D271CFE749B16422B0FBF2F1514302464D
:10508000401AD9624FF4FA71EEE740F2E242B0FB07
:10509000F2F151430246D962401AE3E7121945F191
:1050A0000005C3E9742502B0BDE8F087D0F81031DF
:1050B00013B940F2DD71ADE7002583F88C5090F80C
:1050C000781183F8741083F87510FF2483F8764004
:1050D0000339D0F81001012900F13C008CBF0021F8
:1050E000012119F0B1F8D6F8100119F0D8FFC6F86F
:1050F000105186F8164109F063FB02B0BDE8F04795
:1051000011F0F6BE7E0E040074110400341E00205F
:1051100008B50B4B30B101280DD040F655012120C8
:10512000FBF7A2FB18601A6841F669039A4206D998
:1051300040F65E01F3E740F6C4121A60F3E708BDDB
:10514000341E00202DE9F04F04468FB01E468B46DA
:105150000392BDF860801AF0F5FD81462046049167
:1051600014F063F8D4F8CCA00546002E00F0268297
:10517000002800F04482204614F0CDF9039B80F013
:105180000106F6B2002B00F0188119F5FA630593B9
:10519000049B43F10003069306F00AF906F0C2F8F7
:1051A000074604F1E8003946079006F08DF8D4F878
:1051B000101111B1079814F07DF91FB1B7F924202F
:1051C000A4F80C21B5B1D4F8F050B7B1B868059B7C
:1051D000D7E9002100938018069B2A4641F100017F
:1051E000019319F010FE854208D240F24D31212082
:1051F000FBF73AFBD4F8C850E7E73846079006F0CB
:10520000DDF8059B0798D4F8C8C0C518069B43F184
:105210000007B8F1000F00F0CB801FFA88F842F2C7
:10522000107329463A46E8FB03120CF2CF7303448D
:10523000B3FBFCF30CFB03F3EB1A67F10000C4E9CA
:105240003A300123C4E92A124FF0000804EB0802A7
:105250002046069392F87C1113F0AAFF0590069B56
:10526000D4E92A21521B61EB0701012A71F10000E8
:105270004FF00000C0F292819245884100DB9246D7
:1052800004EB8808D8F8CC20524594BFC4F8DC2041
:10529000C4F8DCA026BB1BB35900B4F90C0189B2D9
:1052A00019F064F8B4F80C21D4F810314FEAE07C1E
:1052B000121A12B2A4F80C2143B1A3F8F421D3E9D5
:1052C000742112184CEB0101C3E97421D4E93A327C
:1052D0002D184CEB07071B184CEB0202C4E93A32BD
:1052E000039B2BB1D4E93A23C4E92C57C4E93023FA
:1052F000059B2A462046C4F8D8300423C4E92E571B
:105300008BF809303B4613F0A6FF059B8BF808008D
:10531000CBF80430002E00F04C81012304998BF867
:105320000030D4E92A32B3EB090362EB0102012B0E
:1053300072F100014FF00001C0F23281B34F9F4281
:10534000914100DB1F46D4F81031D4F8C880002BFF
:1053500040F02B8107262046A8FB065613F065FF78
:10536000002800F01F81D4E92C32ED1846EB02062C
:10537000A945049BB3410FD2B5EB0905049B66EB2D
:1053800003066FF00103AB424FF00003B34102D3B9
:10539000AF4228BF2F46B846CBF81080D4F8DC00C7
:1053A000059B984234BF002001200FB0BDE8F08F6C
:1053B0004FF0FF316FF0004237E7002E39D06FF029
:1053C0000043D4E92A129A4208BFB1F1FF3F2BD023
:1053D00094F844312046234493F87C1113F0E8FEFE
:1053E000039B19F1AB0205468DF82030049B099010
:1053F00008A843F10003CDE90C2340F20243ADF8C5
:1054000028301AF002FE10B940F29641EFE6D4E9D6
:105410002A320C995B1A0D9962EB01025B1B62F157
:105420000003002BC0F2B3804D46049F01260023E9
:105430000AE7D4E93A37D4F8C8500026A9EB0302AA
:105440005919B2FBF5F205FB02F247F100075218B9
:10545000A2EB090147F10007AA290DD8D4F8B8102A
:10546000C91AB1FBF5F105FB0133D31AB3FBF5F310
:10547000AD1847F10007E7E694F87C11204613F0D9
:1054800097FE0423D4F8B8208DF82930D4F8C850FA
:10549000099020468DF82060D4E93A13521AB2FBE5
:1054A000F5F26A43521843F10003CDE90C2313F0DF
:1054B000D2FE29468DF8280008A817F0FFFE034603
:1054C000DDE90C57C0E651F8042F013302F12B0C33
:1054D000BC459FBF821A08F10108BF185FFA88F81F
:1054E000DAB29645EFD804EB0803204693F87C1116
:1054F00013F05EFE384404EB8803D3F8CC308342CB
:1055000009D3A3EB070ABAF1000F24DA40F24E41A7
:105510006DE62F466AE094F84511D4F8C82041455D
:1055200011D908F1010895425FFA88F808D204EB16
:105530008803D3F8CC3003F12B029A461546E2E7F4
:105540004FF4856153E69542F7D352009542F4D368
:1055500040F245414BE6AD19059B20464FF0000651
:1055600043F10007D4E92C2313F0F9FDD4F8C83037
:105570005843D4E93A321B18204642F10002C4E9EC
:105580003A323B462A4613F0EAFD03465EE6039BA9
:105590004D46049F01269A46984657E682466FE696
:1055A0000F46D0E6D4E93032DFE64FF0FF352E4625
:1055B000DEE68BF80060CBE90457EFE6039B002B97
:1055C0007FF4E3ADD4F8C87009F1AB05D4E93A2310
:1055D000A9EB0206B6FBF7F67E43B618A5EB060567
:1055E00043F10003AF42059393D8EF1B002394F8D7
:1055F00045E104F1C8016FF02A00984670E7039B6B
:10560000002B3FF416AF2E46BFE500BF0040420F0F
:105610000138C0B2032808B504D940F21131062080
:10562000FBF722F9014B185C08BD00BF9A0E04007D
:105630000138C0B2032808B504D940F21131062060
:10564000FBF712F9014B185C08BD00BFB70E040050
:105650000138C0B2032808B504D940F21131062040
:10566000FBF702F9014B185C08BD00BF180F0400DE
:105670000138C0B2032808B504D940F21131062020
:10568000FBF7F2F8014B185C08BD00BF15100400D1
:10569000F0B5284AA7B004460D4610686B4651681D
:1056A00002AE0F2203C300210DF189001AF00CFE97
:1056B0000021102230461AF007FE16ABDDE900018A
:1056C00083E80300234618AC03F128071868083361
:1056D00053F8041C2246BB4203C21446F6D1802371
:1056E00006AA8DF88830002302F8013B0133102B05
:1056F000FAD196E80F0012AC84E80F000AAA2146FE
:1057000006A814F07AF801230EAA214606A88DF8FF
:105710004B3014F072F82A460EA90AA804231AF096
:1057200053FD042305F1100229460AA81AF04CFD86
:1057300027B0F0BD9E0E040000487047400D0300E6
:1057400010B590F86232042B0CBF0124002406D15E
:10575000062380F862320349034818F085FC20468E
:1057600010BD00BFF1990100C01E002038B50C4DDE
:1057700002210C4C28461AF072FB60B11AF0E6FACE
:10578000E0680130E060684300F54330BDE8384030
:105790005A301AF0D9BA2069BDE8384014F0CDB8B3
:1057A000400D0300C01E002010B50BF0E1FA074CBD
:1057B00020B92069BDE8104014F0BFB8237D1BB1AB
:1057C000FFF7D4FF0023237510BD00BFC01E0020CB
:1057D00010B5094C237D5BB10AF08CF820B120692B
:1057E000BDE8104014F0A9B8BDE81040FFF7BEBFF7
:1057F000BDE810400BF0CCBAC01E002010B5164C0E
:105800002061164811F0B6FA144811F0C1FA236964
:105810001348D3F8D420D27C012A09BF93F85D3213
:105820000023B3FA83F35B0923750023E3601AF0C6
:105830008BFA20690BF0EEF818B979218520FBF777
:1058400013F820690BF002FA20B92069BDE8104076
:1058500014F073B810BD00BFC01E0020A95700008F
:105860005A0C0300014B024A1A6070475C2A002060
:10587000B4580000014B1868704700BF5C2A002034
:1058800010B50D2140F6FF70FBF78AFC044607496E
:10589000074818F0E3FB0CB90C2010BD94F86232F5
:1058A000062BF9D00AF01AF80020F6E7F599010066
:1058B000D51E00203957000037990100FD57000020
:1058C0003B990100D1570000A95700004157000043
:1058D00008B50BF04DFA28B9034B1868BDE808402D
:1058E00014F091B908BD00BFE01E0020F7B50446D2
:1058F000052900F20B81DFE811F00600A800AB00DB
:1059000009010901A40090F8623223B903B0BDE88F
:10591000F04011F0EDBA90F86232052B05D10F225C
:105920000021204614F0A2F9F0E74FF40C718068D2
:1059300010F0B2FAA368283B18441AF005FA94F85C
:105940006232032B08D094F86232022B04D040F26A
:1059500047118E20FAF788FF032384F86232D4F8C7
:10596000D4300D21B4F864222046B3F847301344F4
:10597000A381FBF76FFC06460E21FBF711FC69467D
:105980000546304617F02FFD08B18421E1E794F871
:105990005D3240F2712E95F83E710199B5F83821CB
:1059A000C969B5F850014A43B5F83A110EFB00F049
:1059B000B3FBF7F607FB16335643DBB203F1010CDA
:1059C0004B430EFB0363834201D98E21C1E7BC45E3
:1059D000A0EB030300D0F1B93244904202D8042274
:1059E00084F86222D5F84C21934218D2042284F81C
:1059F000622223F07F43D4F85022204663F317023B
:105A0000C4F850220BF006F860B9204603B0BDE898
:105A1000F04014F0F8B80EFB01F18B42DEE722F003
:105A20007F43E8E720460BF011F90028EDD0394814
:105A300011F0A0F9374811F0ABF9374B1C6003B0F7
:105A4000F0BD0BF0ADF903226AE74FF4F17180E786
:105A5000FF2380F8673290F8623203F0FF0213B937
:105A600080F86722EBE790F86232052B07D103221A
:105A7000002114F0FBF8002384F86732F2E73023AA
:105A8000694680F82032B0F86032ADF800300AF094
:105A90006FFBBDF800300228B4F86022A3EB0203CC
:105AA00084F8B030E7D001282CD1042384F8623286
:105AB0000D212046FBF7CEFB0E21FBF771FB94F87E
:105AC0005D3290F83E21B3FBF2F102FB113301335A
:105AD000DBB29A4202D0042384F86232D4F8D43084
:105AE0002046B3F84710B4F86432194489B2A18152
:105AF0000BF078F994F86232042BBCD1204613F0F5
:105B000082FFB8E720460EF0DDFAD1E74FF4F471DA
:105B10001FE700BFD1580000E01E0020014B024AE1
:105B20005A607047E01E0020ED580000024B02460C
:105B3000183059681AF063BAE01E0020024B034A7D
:105B40001A60528B9A807047E81E0020E6110020F0
:105B5000014B1868704700BFE81E002008B50346D7
:105B600010465A1E032A10D84A1E032A0DD8084A86
:105B7000012951700CBF00210A211071937091729C
:105B80001946FBF727FD002008BD6FF01500FBE765
:105B9000E6110020074B5A8A38B142F01002987A79
:105BA0005A82DA8A9A839877704722F01002988393
:105BB0005A82F8E7E611002010B4094C637A60B10C
:105BC00043F004030029637210460CBF002307232F
:105BD00063715DF8044BFFF7DDBF03F0FB03F1E7F2
:105BE000E611002040EA4100014BD870704700BF29
:105BF000E611002014280BD028280BD00A280BD13E
:105C00000323064A0020528B1340054A93807047B5
:105C10000223F6E70023F4E71E207047E611002078
:105C2000E81E0020014B9888704700BFE81E002046
:105C300070B546680D4604460E213088FBF7B0FA71
:105C4000064980F8BD50B43018F008FA002386F8F1
:105C500049312046BDE8704018F033BCE15D0000DA
:105C60002DE9F0414768054688460E213888FBF744
:105C700097FA0D2104463888FBF792FA002680F83F
:105C80006262094904F1B40084F8BD8084F8BE6002
:105C9000A4F8C06018F0E2F987F84A612846BDE828
:105CA000F04118F00EBC00BFE39F01002DE9F04168
